:100000000C941D030C9445030C9445030C94450378
:100010000C9445030C9445030C9445030C94450340
:100020000C9445030C9445030C9445030C94450330
:100030000C9445030C9445030C9445030C94450320
:100040000C94E9260C9445030C9459270C943327FF
:100050000C9445030C9445030C9445030C94450300
:100060000C948B270C94450308000000BE92244991
:10007000123EABAAAA2ABECDCCCC4C3E00000080DA
:10008000BEABAAAAAA3E00000000BF000000803F4D
:100090000000000000084178D3BB4387D1133D190D
:1000A0000E3CC3BD4282AD2B3E68EC8276BED98F3A
:1000B000E1A93E4C80EFFFBE01C4FF7F3F0000007E
:1000C000000023464630303030002346464135306C
:1000D000300023464646463030002330304330302F
:1000E000300023303030304646002337463030462B
:1000F00046003635306E6D003630306E6D00353767
:10010000306E6D003535306E6D003530306E6D00FF
:100110003435306E6D003634580031365800332E89
:10012000375800315800313030206D4100353020D3
:100130006D41003235206D410031322E35206D4148
:10014000006572726F720061636B0070726F67722C
:10015000657373004D656173757265207468652001
:100160007265666572656E63652066697273742078
:10017000286C6F67202F202D6C6F673130207375CE
:10018000626D6F6465292E004E6F206368616E6E2C
:10019000656C2073656C65637465642E00466C75D0
:1001A0006F72657363656E636520686173206E6F3F
:1001B000207265666572656E6365206D6561737535
:1001C00072656D656E742E00726177006C6F6700EA
:1001D000666C756F72657363656E636500616273EB
:1001E0006F7262616E6365007265666C65637461EF
:1001F0006E636500726573756C74007265665F731B
:100200006176656400CDCCCC3D0AD7233C17B7D1CD
:100210003877CC2B329595E6241FB14F0A00002089
:10022000410000C84200401C4620BCBE4CCA1B0E08
:100230005AAEC59D7441533732363200636F6C6FCE
:100240007200EA00E200DA00D200CA00C200100127
:100250000A010401FE00F800F20023011E011A0148
:10026000160176616C7565207820322E386D73002A
:10027000496E746567726174696F6E2054696D654B
:1002800000390133012D0126017B22657674223A63
:10029000226572726F72222C226D7367223A22538A
:1002A000656E736F72206E6F7420666F756E642E4C
:1002B00020436865636B2049324320776972696E19
:1002C000672E227D000000000800020100000304E8
:1002D00007000000000000000000000000250028CA
:1002E000002B0000000000240027002A0004040462
:1002F00004040404040202020202020303030303CF
:1003000003010204081020408001020408102001AB
:1003100002040810207D0A002C226D6178223A0028
:100320002C2274797065223A226E756D6265722294
:100330002C226D696E223A002C2274797065223A63
:100340002273656C656374222C226F7074696F6E02
:1003500073223A5B00222C226C6162656C223A00A7
:100360007B226B6579223A22002C226578747261B7
:10037000506172616D73223A5B002C227479706552
:10038000223A2270726573657473222C2270726532
:1003900073657473223A5B002C226D6178223A00F7
:1003A0002C226D696E223A00222C226C6162656CEF
:1003B000223A007B226B6579223A22002C22747942
:1003C0007065223A22666F726D756C61222C227004
:1003D0006172616D73223A5B002C22666F726D75DB
:1003E0006C61223A002C2274696D65223A7B22638B
:1003F000757272656E744D73223A002C22616E67BD
:100400006C65223A39307D7D002C22616E676C6507
:10041000223A3138307D2C22666C756F72657363B9
:10042000656E6365223A7B2274797065223A226593
:10043000787465726E616C222C2270696E223A00AB
:100440007D2C226162736F7262616E6365223A7BFA
:100450002274797065223A2265787465726E616CD7
:10046000222C2270696E223A002C226D61784D4157
:10047000223A002274797065223A22636F6E7469A1
:100480006E756F7573222C226D696E4D41223A0094
:100490002274797065223A226469736372657465A7
:1004A000222C226F7074696F6E73223A5B00227483
:1004B000797065223A2262696E6172792200227433
:1004C000797065223A226E6F6E6522002C226C656F
:1004D00064223A7B22696E7465726E616C223A7B8B
:1004E000002C226D6178223A002274797065223ADC
:1004F00022636F6E74696E756F7573222C226D693D
:100500006E223A002274797065223A22646973631C
:1005100072657465222C226F7074696F6E73223A53
:100520005B002C226761696E223A7B002261627354
:100530006F7262616E6365222C22666C756F7265E4
:100540007363656E6365225D007265666C656374D6
:10055000616E6365002C226D6F646573223A5B00E7
:100560002C22636F6C6F72223A002C226E616D65D3
:10057000223A007B226964223A002C226368616E71
:100580006E656C73223A5B002C2273656E736F721A
:1005900054797065223A007B22657674223A22698A
:1005A0006E666F222C2273656E736F72223A00554D
:1005B0006E6B6E6F776E20636F6D6D616E6400554C
:1005C0006E6B6E6F776E20657874726120706172E9
:1005D000616D00507265736574206F7574206F666D
:1005E0002072616E6765004761696E206F757420C7
:1005F0006F662072616E6765005468697320736569
:100600006E736F7220686173206E6F20636F6E74FB
:10061000726F6C6C61626C65204C454400556E6B6A
:100620006E6F776E206D6F646500496E76616C69E0
:1006300064204A534F4E0000AA2811241FBECFEF5A
:10064000D8E0DEBFCDBF12E0A0E0B1E0E0E7FCE51E
:1006500002C005900D92AC39B107D9F724E0ACE99E
:10066000B2E001C01D92AA3CB207E1F713E0CDE170
:10067000D3E004C02197FE010E94232ACC31D10788
:10068000C9F70E94E3280C94362E0C9400000895BC
:10069000089590E0FC01EF5FFC4F249183519D4F42
:1006A000FC018491882399F090E0880F991FFC0148
:1006B000ED51FD4FA591B491FC01E752FD4F85919D
:1006C00094918FB7F894EC91E22BEC938FBF08953F
:1006D00090E0FC01EB53FD4F2491FC01EF5FFC4FD8
:1006E0003491FC01E351FD4FE491EE23C9F0222344
:1006F00039F0233001F1A8F4213019F1223029F129
:10070000F0E0EE0FFF1FE752FD4FA591B4918FB7B8
:10071000F894EC91611126C030953E233C938FBF35
:1007200008952730A9F02830C9F0243049F7809186
:1007300080008F7D03C0809180008F778093800040
:10074000DFCF84B58F7784BDDBCF84B58F7DFBCFC2
:100750008091B0008F778093B000D2CF8091B000AD
:100760008F7DF9CF3E2BDACF3FB7F89480915103BC
:1007700090915203A0915303B091540326B5A89BC6
:1007800005C02F3F19F00196A11DB11D3FBFBA2F23
:10079000A92F982F8827BC01CD01620F711D811DE3
:1007A000911D42E0660F771F881F991F4A95D1F768
:1007B00008958F929F92AF92BF92CF92DF92EF9265
:1007C000FF924B015C010E94B4036B017C010E940B
:1007D000B4036C197D098E099F09683E7340810539
:1007E0009105A8F321E0821A9108A108B10888EECA
:1007F000C80E83E0D81EE11CF11C81149104A104F1
:10080000B10429F7FF90EF90DF90CF90BF90AF90A9
:100810009F908F9008952FB7F89460914D03709139
:100820004E0380914F03909150032FBF0895AF92D4
:10083000BF92CF92DF92EF92FF920F931F93CF93CD
:10084000DF936C017B018B01040F151FEB015E012F
:10085000AE18BF08C017D10759F06991D601ED91C4
:10086000FC910190F081E02DC6010995892B79F763
:10087000C501DF91CF911F910F91FF90EF90DF9015
:10088000CF90BF90AF900895FC01538D448D252FDC
:1008900030E0842F90E0821B930B541710F0CF961A
:1008A000089501970895FC01918D828D981761F04C
:1008B000A28DAE0FBF2FB11D5D968C91928D9F5F63
:1008C0009F73928F90E008958FEF9FEF0895FC0142
:1008D000918D828D981731F0828DE80FF11D858DF5
:1008E00090E008958FEF9FEF0895FC01918D228D88
:1008F000892F90E0805C9F4F821B91098F7399270D
:1009000008958DE194E00E94750421E0892B09F49B
:1009100020E0822F089580E090E0892B29F00E944A
:10092000810481110C9400000895FC01A48DA80F8E
:10093000B92FB11DA35ABF4F2C91848D90E0019621
:100940008F739927848FA689B7892C93A089B18941
:100950008C91837080648C93938D848D981306C0E2
:100960000288F389E02D80818F7D80830895EF9246
:10097000FF920F931F93CF93DF93EC0181E0888F59
:100980009B8D8C8D98131AC0E889F989808185FF29
:1009900015C09FB7F894EE89FF896083E889F989CB
:1009A00080818370806480839FBF81E090E0DF91CD
:1009B000CF911F910F91FF90EF900895F62E0B8D20
:1009C00010E00F5F1F4F0F731127E02E8C8D8E11DB
:1009D0000CC00FB607FCFACFE889F989808185FF42
:1009E000F5CFCE010E949504F1CFEB8DEC0FFD2FDA
:1009F000F11DE35AFF4FF0829FB7F8940B8FEA89FD
:100A0000FB8980818062CFCF682F8DE194E00C94C8
:100A1000B7040F931F93CF93DF938C01D0E0C0E016
:100A2000F801EC0FFD1F6491662341F08DE194E025
:100A30000E94B704892B11F02196F2CFCE01DF91ED
:100A4000CF911F910F910895CF93DF93EC01888D83
:100A50008823B9F0AA89BB89E889F9898C9185FD39
:100A600003C0808186FD0DC00FB607FCF7CF8C91C7
:100A700085FFF2CF808185FFEDCFCE010E949504E6
:100A8000E9CFDF91CF910895FC0180818F730895A4
:100A9000FC0180818E7F089520910803260F332763
:100AA000331F21323105ECF420917B03FC0190E0EF
:100AB00080E0243069F082E00895A091080321913C
:100AC000AC0148515D4FA40FB52FB11D2C93019679
:100AD000861798F380910803680F6093080380E0FD
:100AE000089581E0089510927B0381E080937A035A
:100AF0001092550361E082E10E94680361E083E1A6
:100B00000E946803E9EBF0E080818E7F8083808122
:100B10008D7F808388E48093B80085E48093BC0057
:100B200008951092AA031092A9031092A80310929C
:100B3000A7030E94730587E493E09093A603809334
:100B4000A50388E493E09093A4038093A3030895FE
:100B5000CF93DF9391E09093E7028823B9F0C0919F
:100B6000B800D091BA008091BC008A7B8093BC0011
:100B700060E082E10E94680360E083E10E94680314
:100B80000E947305D093BA00C093B800DF91CF9153
:100B900008958F929F92AF92BF92CF92DF92EF9281
:100BA000FF920F931F93CF93DF93D091A703D1327E
:100BB00008F0D7C0182FC091A2030E94B4036B01A4
:100BC0007C0180917B0381116BC082E080937B0369
:100BD00010937A038FEF8093790310927803D09368
:100BE0007703A2E8B3E0E7E5F3E080E0D81391C033
:100BF0001092560380915603CC0FC82BC093560316
:100C000080915503813009F088C0109255030E94ED
:100C1000B4036B017C01809156038093BB008091EB
:100C20007D0390917E03A0917F03B0918003892B77
:100C30008A2B8B2BA1F00E94B40300917D031091AD
:100C40007E0320917F03309180036C197D098E090A
:100C50009F09061717072807390708F442C0809133
:100C6000BC0083FDD8CF85EC8093BC000E94B40308
:100C70006B017C0180917B03823009F450C080912C
:100C800079038F3F09F46FC080917903803209F4B2
:100C90006CC080917903803309F469C084E026C078
:100CA00080917D0390917E03A0917F03B09180039A
:100CB000892B8A2B8B2B09F484CF0E94B40380905C
:100CC0007D0390907E03A0907F03B09080036C1909
:100CD0007D098E099F0986169706A806B90608F0B1
:100CE00070CF80917C030E94A80585E01092A80334
:100CF0001092A70310928103DF91CF911F910F9162
:100D0000FF90EF90DF90CF90BF90AF909F908F902B
:100D100008959D9191938F5F69CF85EEA5CF8091C6
:100D20007D0390917E03A0917F03B0918003892B76
:100D30008A2B8B2B09F49ECF0E94B40300917D0374
:100D400010917E0320917F03309180036C197D09FF
:100D50008E099F09061717072807390708F08ACF59
:100D6000C0CF81E0C3CF80E0C1CF82E0BFCF83E0BE
:100D7000BDCF1F93CF93DF93EA01122FDC011196B1
:100D80008D919C91DC01ED91FC910280F381E02D2D
:100D90000995C817D90729F4812F0E94C90591E048
:100DA000811190E0892FDF91CF911F9108959F923B
:100DB000AF92BF92CF92DF92EF92FF920F931F9369
:100DC000CF93DF93DA01AE0DBF1DEC01EC81FD8105
:100DD000EA17FB0798F1922EEA015B016C01FC0116
:100DE00081819281208131E0309381032093A2039D
:100DF0001092A8031092A703EF2889F4292DAE01C1
:100E0000B501C601DF91CF911F910F91FF90EF9037
:100E1000DF90CF90BF90AF909F900C94B9060115D2
:100E2000110561F3DC01ED91FC910280F381E02D6D
:100E300041E050E0B8010995019701F380E0DF91AE
:100E4000CF911F910F91FF90EF90DF90CF90BF90C7
:100E5000AF909F900895CF93DF93EC018B8188230F
:100E6000A1F0888191E0909381038093A203109276
:100E7000A8031092A70381E00E94C90591E08111A7
:100E800090E0892FDF91CF9108950E94910581E034
:100E90008B83CE010E942B07982F8111E2CFF1CFD7
:100EA0000895E091AA038091A903E81730F4F0E0D7
:100EB000E55DFC4F808190E008958FEF9FEF0895EE
:100EC0009091AA038091A9032FEF3FEF981748F460
:100ED000E92FF0E0E55DFC4F208130E09F5F9093CB
:100EE000AA03C90108958091A9039091AA03891BBF
:100EF000990B0895CF92DF92EF92FF920F931F9379
:100F0000CF93DF937C01CB018A01209181032223BF
:100F100089F0EB016B01C40ED51ECC15DD0569F01F
:100F20006991D701ED91FC910190F081E02DC7010D
:100F30000995F3CF642F0E944C05C801DF91CF9132
:100F40001F910F91FF90EF90DF90CF900895CF9376
:100F5000DF931F92CDB7DEB76983209181032223EF
:100F6000F9F02091A703203258F021E030E0FC0195
:100F70003383228390E080E00F90DF91CF9108953A
:100F80008091A803E82FF0E0EE57FC4F9981908301
:100F90008F5F8093A8038093A70381E090E0ECCF5C
:100FA00061E0CE0101960E944C05F7CF90E080E011
:100FB0000895E62FF0E0EE0FFF1FEF57FD4F8591EC
:100FC000949108956FEF70E080E090E0089560E004
:100FD00070E0CB01089580E792E0089580E991E008
:100FE0000895FC01608570E090E080E00E94522B43
:100FF00023E333E343E350E40E94612C089582E647
:1010000092E00895E62FF0E0EE0FFF1FE65AFD4F45
:10101000859194910895462F50E0440F551FFA0191
:10102000E25BFD4F25913491B901FA01EE5BFD4F72
:1010300025913491C90108958CE392E0089585E3E8
:1010400092E00895CF93DF93EC0188819981DC01D0
:10105000ED91FC910190F081E02D09952A813B8171
:10106000820F931F9B838A83DF91CF910895982FDE
:1010700080336CF08A3324F08F3524F08B3724F4DE
:1010800081E0089581341CF081E09B350CF080E014
:101090000895CF93DF93EC0188819981DC01ED9174
:1010A000FC910280F381E02D09952A813B81820F1A
:1010B000931F9B838A83DF91CF9108958F929F9294
:1010C000AF92BF92CF92DF92EF92FF920F931F9356
:1010D000CF93DF93CDB7DEB766970FB6F894DEBF38
:1010E0000FBECDBF6C018E01095E1F4F78018AE0F3
:1010F000882E912CA12CB12CCB01BA01A501940111
:101100000E94F629942F852F605DF80162938F016C
:10111000A901692F782F411551056105710561F706
:10112000A7014E1B5F0BBF01C6010E9449086696CE
:101130000FB6F894DEBF0FBECDBFDF91CF911F91E8
:101140000F91FF90EF90DF90CF90BF90AF909F9066
:101150008F900895FC01848581110AC0A185B28514
:10116000CD010196928781878C91838781E0848766
:10117000838508951F93CF93DF93EC01162F0E9470
:10118000AA08811306C01C8681E0DF91CF911F91D0
:10119000089580E0FACF0F931F93CF93DF938C01D4
:1011A000EB018991882369F0C8010E94AA0888236D
:1011B00079F0FE013197908198130DC0F8011486E3
:1011C000F0CF90E080E0DF91CF911F910F910895D3
:1011D00082E090E0F8CF83E090E0F5CFCF93DF930B
:1011E000EC01CE010E94AA088B304CF489305CF4EB
:1011F000882359F081E0888790E080E00BC08D3033
:1012000011F08032B9F71C86ECCF8885811105C0BA
:1012100081E090E0DF91CF91089582E090E0FACFF5
:10122000660F771F660F771FDC01ED91FC91E60FCB
:10123000F71F65917591859194910895CF93DF93F0
:10124000EC0182E20E940405CE010E94090582E2BF
:10125000DF91CF910C940405FC0124813581A90113
:101260004F5F5F4F868197814817590748F4828105
:10127000938155834483FC01E20FF31F608308953B
:101280000190F081E02D81E0808708959F92AF92D8
:10129000BF92CF92DF92EF92FF920F931F93CF9363
:1012A000DF9300D000D01F92CDB7DEB78C010E9433
:1012B000AA08D82ED8011C961C92F12CE12C60EFC4
:1012C000C62EC8010E94AA08F8011486D81609F48F
:1012D000B4C0811113C082E090E00F900F900F9086
:1012E0000F900F90DF91CF911F910F91FF90EF9092
:1012F000DF90CF90BF90AF909F9008958C3509F00C
:101300009AC0C8010E94AA08882329F3E6E9F1E0FF
:10131000853709F084C0D8011C961C9254E0952EA4
:10132000B12CA12CC8010E94AA088823A1F2813403
:1013300034F48053803130F083E090E0CECF8F7D65
:101340008753F8CF44E0AA0CBB1C4A95E1F7A82AC2
:10135000F80114869A949110E5CFC501985D811526
:10136000944020F47501F3E0FF22ABCFC5019C5DF2
:1013700081159440A8F483E0B822B701762F662740
:10138000770F770F6A297B2990E080E0019660381B
:1013900071058105910540F4C8010E942C0991CF87
:1013A000B50190E080E0F3CF1982262F2F732068DB
:1013B0002A8326E096958795779567952A95D1F7A4
:1013C0006032710580F4606C6B835E01A4E0AA0E4C
:1013D000B11CD5016E915D01662309F472CFC8017D
:1013E0000E942C09F6CF262F2F7320682B8386E0CE
:1013F000769567958A95E1F76031710538F4606EEE
:101400006C835E01B5E0AB0EB11CE3CF60686C830A
:10141000CD825E01E6E0AE0EB11CDBCF329690814C
:10142000992309F489CF8913F9CF8181882309F49D
:1014300083CFF8011486682FAFCF0190F081E02DA3
:101440008085882319F084E090E047CF90E080E029
:1014500044CF4F925F926F927F928F929F92AF9202
:10146000BF92CF92DF92EF92FF920F931F93CF9391
:10147000DF9300D0CDB7DEB77B01DC012C912B329E
:10148000E1F12D32D9F50196DD24D394FC012081C0
:1014900030ED320F3A3018F02E3209F075C18C0160
:1014A00060E070E0CB01F8012191A0ED4A2E420EE0
:1014B000B9E09B2E941420F16A3929E9720782075A
:1014C00029E1920740F5AAE0B0E09B01AC010E943F
:1014D000182A512C712C612C530142018094909454
:1014E000A094B09486169706A806B906A0F0640DDD
:1014F000751D861D971D8F01D6CF0196D12CC6CFA5
:10150000211109C0DD2009F445C061307105810554
:1015100030E89307A8F0C12C5AE0452E512C612CDD
:10152000712C61157105F0E88F07910508F442C030
:10153000A30192010E94F629CA01B901C394F1CF17
:10154000D70114962C91149720782A6014962C9326
:101550009B01AC0188279927DC01821B930BA40B0C
:10156000B50BF70180839183A283B3838D2D0F90F8
:101570000F90DF91CF911F910F91FF90EF90DF902F
:10158000CF90BF90AF909F908F907F906F905F9023
:101590004F900895D70114962C91149720782860C5
:1015A00014962C93F7016083718382839383DD24E7
:1015B000D394DCCFF801D8012D918D0130ED320F9D
:1015C0003A3010F4C394F6CF2E3201F58F010F5F3D
:1015D0001F4FF8010F5F1F4F208140EDB42EB20E58
:1015E000B9E0BB1598F06C3CECEC7E07ECE08E07A4
:1015F000910578F7AAE0B0E09B01AC010E94182A9F
:101600006B0D711D811D911DCA94E3CF20812F7D2B
:1016100010E000E0253409F065C021812D3209F089
:1016200042C0329621E0DF0110E000E04C2D0C2C8E
:10163000000C550B3AE0B32EFD013D910F2EF0ED5D
:10164000AF2EF02DA30E0F2EF9E09F2EF02D9A1441
:1016500008F443C0B09EF001B19EF00D1124032F99
:10166000330F110B005311090E0F1F1FF801E40F68
:10167000F51FB7970CF3D70114968C912223D1F064
:1016800040E050E060E070E8D11003C040E050E07E
:10169000BA0180788C60F701848340835183628330
:1016A0007383D22E63CF2B3219F0319620E0BBCF5B
:1016B0003296FCCF40E050E060E87FEFD11004C0EC
:1016C00040E050E060E87FE780788C60F701848339
:1016D00040835183628373836ACF222319F011956B
:1016E00001951109208121114FC00C0D111DC7FC5E
:1016F0001A950E94522B2B013C011016110614F56D
:101700008DE192E09A838983B12CA12C01151105FA
:1017100039F1B6E0AB16B104E9F000FF0DC0B50138
:10172000CE0101960E9410099B01AC01C301B201D8
:101730000E94612C2B013C0115950795EFEFAE1A25
:10174000BE0AE4CF85E092E09A83898311950195E2
:101750001109DACF412C512C80EC682E8FE7782EBE
:10176000DD2021F077FA709477F87094D701149601
:101770008C91149780788C6014968C93F70140823A
:1017800051826282738213CFD12CF0CECF93DF933C
:1017900000D000D01F92CDB7DEB7FC0194819F77B7
:1017A000963091F030F4943020F560E070E0CB0199
:1017B00011C09A30B9F09C3049F19830B1F760818E
:1017C00071818281938104C0608170E090E080E04B
:1017D0000E94522B0F900F900F900F900F90DF915F
:1017E000CF91089560817181828193810E94542BF1
:1017F000F1CF808191811D82BE016F5F7F4F0E947A
:10180000290ACE0101960E94C60BE4CF6081718146
:1018100082819381DFCFCF92DF92EF92FF92CF93BD
:10182000DF9300D000D01F92CDB7DEB7FC018481DA
:101830008F778630B9F028F4843088F590E080E026
:1018400013C08A30E9F08C30B9F18830B9F7808163
:101850009181A281B381811520E89207A105B1058C
:1018600068F702C0808190E00F900F900F900F906A
:101870000F90DF91CF91FF90EF90DF90CF90089580
:1018800080819181A281B381AC01BD0150586F4F1D
:101890007F4F411551056140710580F6E5CF80818C
:1018A00091811D82BE016F5F7F4F0E94290ACE0188
:1018B00001960E940B0CD8CFC080D180E280F380CB
:1018C00020E030E040E057ECC701B6010E94042C54
:1018D00087FDB4CF20E03EEF4FEF56E4C701B601DD
:1018E0000E94A52A18160CF4A9CFC701B6010E94C0
:1018F0001C2BCB01B9CFCF92DF92EF92FF92CF9307
:10190000DF9300D000D01F92CDB7DEB7FC018481F9
:101910008F778630A1F030F4843030F560E070E0ED
:10192000CB0111C08A30D9F08C3059F18830B1F731
:10193000608171818281938197FF05C0EFCF6081C3
:1019400070E090E080E00F900F900F900F900F905C
:10195000DF91CF91FF90EF90DF90CF90089560815D
:10196000718182819381EFCF808191811D82BE013F
:101970006F5F7F4F0E94290ACE0101960E947B0C67
:10198000E2CFC080D180E280F38020E030E040E010
:101990005FECC701B6010E94042C87FDBFCF2FEF7B
:1019A0003FEF4FEF5EE4C701B6010E94A52A18166B
:1019B0000CF4B4CFC701B6010E941C2BC4CFCF9347
:1019C000DF93DC01EB01EC81FD818A819B8108962C
:1019D000E817F90740F481E08887F0E0E0E0CF0104
:1019E000DF91CF9108953897FD83EC833097B9F359
:1019F0001296CD91DC911397209791F0CF018C1B1B
:101A00009D0B23E0959587952A95E1F78D83139695
:101A1000FC93EE9312971582148217821682DFCF01
:101A20001196FC93EE93F3CFEF92FF920F931F93D7
:101A3000CF93DF937C01DC0112962D913C9113979B
:101A4000ED91FC91AB01420F531FEF01C60FD71F61
:101A5000C217D307A0F4888181110BC0E901CF011F
:101A60004C175D0751F00991DC011D91CD01011763
:101A7000B9F381918111FDCFE8CF309751F4620F16
:101A8000731FCB010196F70193838283DB011C92C4
:101A9000F901CF01DF91CF911F910F91FF90EF904E
:101AA0000895FC012581222339F0F8E02F029001EE
:101AB0001124820F931F089590E080E00895EF9223
:101AC000FF920F931F93CF93DF936115710519F167
:101AD0007B018C01FC01C081D181209731F0CE01C6
:101AE0000E94510DE816F906E9F4C7010E94510D54
:101AF0002097D1F020E0009741F09C012C1B3D0B7A
:101B000043E0359527954A95E1F72D83892B19F404
:101B1000F801D383C283DF91CF911F910F91FF9082
:101B2000EF900895EC01D9CFF80191838083EECF37
:101B30008091A502811113C08EE091E090939D02E7
:101B400080939C0210929F0210929E0289E48093DF
:101B5000A00282E38093A40281E08093A5028CE935
:101B600092E0089584E0089582E0089581E0089568
:101B700080E0089586E0089508952BE0FC0111921D
:101B80002A95E9F7089580E008950895089590E072
:101B900080E00895089560E070E0CB010895FC01B5
:101BA00001900020E9F73197AF01481B590BBC01A8
:101BB0008DE194E00C9417048F929F92AF92BF92A4
:101BC0000F931F93CF93DF93CDB7DEB7A1970FB6D7
:101BD000F894DEBF0FBECDBF19A2423008F44AE030
:101BE0008E010F5D1F4F842E912CB12CA12CA501CD
:101BF00094010E94F629E62FB901CA01EA30F4F4F3
:101C0000E05DD801EE938D01232B242B252B79F752
:101C100090E080E0109719F0CD010E94CF0DA196C1
:101C20000FB6F894DEBF0FBECDBFDF91CF911F91ED
:101C30000F91BF90AF909F908F900895E95CE1CF96
:101C4000CF93DF936115710589F1EB01FC01808170
:101C50009181009769F1FC01A681B781FE01019095
:101C60000020E9F73197AF014C1B5D0B30E020E01D
:101C7000109749F0FD0101900020E9F79F012150E4
:101C800031092A1B3B0B4217530769F49E01BA0125
:101C90006C0F7D1F6217730759F0F90151919F0175
:101CA0004D915417B9F30E94510DD3CF90E080E0CD
:101CB000DF91CF9108959F92AF92BF92CF92DF9222
:101CC000EF92FF920F931F93CF93DF93EC017B0171
:101CD000D42E0E94EE088C01892B09F052C0CE014F
:101CE0000E94AA08863609F455C194F5873229F076
:101CF0008B35D1F1823209F056C1E881F9818281B8
:101D000093819B838A838481958122813381821B85
:101D1000930B9F838E831D821C82892B11F481E09B
:101D20008087CE010E9446098C01892B51F5AC8039
:101D3000BD80B501888199810E94140DF70124812D
:101D400020782560248391838083B382A28219C086
:101D5000843709F408C18B3709F453C08E3609F073
:101D600022C162EB71E008C1F70184818078806450
:101D700084831182108213821282D1100FC005E079
:101D800010E0C801DF91CF911F910F91FF90EF906C
:101D9000DF90CF90BF90AF909F9008951C86CE01AA
:101DA0000E94EE08009709F02DC16DE5CE010E945A
:101DB000BA088111E6CFDA946D857E85C7010E944D
:101DC000DF0C009709F46EC04D2DBC01CE010E94BE
:101DD0005B0E009709F016C1CE010E94EE08009735
:101DE00009F010C16DE5CE010E94BA088111C9CF7A
:101DF0006CE2CE010E94BA088111DECF03E010E050
:101E0000C0CFF70184818078806284831182108240
:101E100013821282DD2009F4B2CF1C86CE010E940B
:101E2000EE08009709F0EEC06DE7CE010E94BA08F7
:101E30008111A7CFBB24B394DA94E881F981828120
:101E400093819B838A838481958122813381821B44
:101E5000930B9F838E831D821C82892B09F4B0868D
:101E6000CE010E94AA08873201F18232F1F0CE0140
:101E70000E94AA08182F0E943708882309F4BECFB1
:101E80001C86612FCE010E942C09CE010E94AA0857
:101E9000182F0E9437088111F3CFE881F9818085DE
:101EA000882351F004E010E06CCFCE010E94460977
:101EB0008C01892B09F065CFCE010E94EE088C01C0
:101EC000892B09F05ECF6AE3CE010E94BA0888230D
:101ED00009F494CFEA81FB818C819D81E80FF91F81
:101EE00010820C811D816A817B81C7010E94200EB6
:101EF000BC01892BA1F4B801888199810E94140D3D
:101F00008C016D857E85C7010E94DF0CFC01892B49
:101F100049F284818068848317830683BF014D2D35
:101F2000CE010E945B0E8C01892B09F02ACFCE01D5
:101F30000E94EE088C01892B09F023CF6DE7CE01BA
:101F40000E94BA0881111DCF6CE2CE010E94BA082E
:101F5000882309F453CFCE010E94EE088C01892B0F
:101F600009F46BCF0ECFF70184818078866084837B
:101F700081E0808367EA71E0CE01DF91CF911F910C
:101F80000F91FF90EF90DF90CF90BF90AF909F9018
:101F90000C94CB08F701848180788660848310825A
:101FA0006CEA71E0E9CFCE010E94AA085E01FFE071
:101FB000AF0EB11CD12C9A2CCB2C803374F08A3309
:101FC00074F49FE3D91699F01C86D394F50181939C
:101FD0005F01CE010E94AA08F0CF8B3291F393EDFE
:101FE000980F923070F3982F9F7D953451F3CD0D5B
:101FF000D11D1F86B701892D9C2D0E94290A8111B0
:10200000C0CEFCCE8C01BDCEFC01248125FF04C0D6
:10201000009711F00C94200E90E080E00895009756
:1020200011F00C94041090E080E00895EF92FF927C
:102030000F931F93CF93DF937B01FC0102811381E8
:10204000C081D1812996B801CE010E940F10FC01F8
:10205000892B31F084818F77883061F08A3009F1E3
:10206000F70180819181DF91CF911F910F91FF90B6
:10207000EF90089580819181A281B381811590486C
:10208000A105B10568F7B801CE010E940F100097B5
:10209000A1F0DF91CF911F910F91FF90EF900C94E1
:1020A0000B0C80819181A281B3819058AF4FBF4FBB
:1020B0000097A140B105A0F6E6CF90E080E0D3CF35
:1020C000EF92FF920F931F93CF93DF93EB01FC01ED
:1020D000E280F38000811181075F1F4FB701C801C3
:1020E0000E940F100097C1F0FC0184818F7784500B
:1020F000823090F4B701C8010E940F10FC01892BB7
:1021000031F084818F77843029F0853019F0D0E068
:10211000C0E002C0C081D181CE01DF91CF911F917B
:102120000F91FF90EF900895EF92FF920F931F93FE
:10213000CF93DF93EC018C81982F9F7739F48078CF
:1021400080628C83198218821B821A828C8185FF9F
:1021500016C06115710599F07A018B01CE010E94BC
:10216000200E0097A9F4B701CE010E94DF0CFC01FC
:10217000892B41F470E060E0CE010E945F0D80E0A9
:1021800090E006C084818F77848317830683CF0114
:10219000DF91CF911F910F91FF90EF900895CF9312
:1021A000DF93EC0148815981CA0109966A817B81DC
:1021B000F0E0E0E0009769F00E949410FC01892BA8
:1021C00041F084818078806284831182108213823E
:1021D0001282BF0188819981DF91CF9108958F92FA
:1021E0009F92AF92BF92CF92DF92EF92FF920F93A6
:1021F0001F93CF93DF93FC018481982F9F7739F44D
:10220000807880628483118210821382128284819A
:1022100085FF40C061157105E9F17A01EB018F017D
:1022200080819181009759F1FC01A681B781FE015F
:1022300001900020E9F73197AF014C1B5D0B30E0B6
:1022400020E0109749F0FD0101900020E9F79F017F
:10225000215031092A1B3B0B4217530769F49E0199
:10226000BA016C0F7D1F26173707B1F0F9015191A4
:102270009F014D915417B9F30E94510DD3CFB7016F
:10228000C8010E94DF0C4C01892B99F4B401C801EC
:102290000E945F0D80E090E0DF91CF911F910F9140
:1022A000FF90EF90DF90CF90BF90AF909F908F9076
:1022B0000895DE010D900020E9F79D0121503109BC
:1022C0002C1B3D0BD701ED91FC91119712968D912E
:1022D0009C916901CC0EDD1EAF01420F531F4817C0
:1022E0005907B8F4DA014C9141110DC0BF01AE019C
:1022F0004C155D0561F0DB01AD90BD01DA01BD90CB
:10230000AD01AB14A9F341914111FDCFE5CF309759
:1023100011F5A9014F5F5F4F480F591FF701648105
:1023200075816417750718F481E08087AFCF5383F8
:102330004283009709F4AACFFC01B9016C0F7D1FFD
:10234000C617D70719F049914193FACF280F391FC3
:10235000F9011082FC01D40114968C9114978068C5
:1023600014968C9314971796FC93EE931697C401CA
:1023700093CFFB0101900020E9F73197AF01461B95
:10238000570B0C9449081F93CF93DF93E6E9F1E0D4
:102390001281112379F0329621816213F9CFEC0179
:1023A0006CE50E942208612FCE01DF91CF911F9131
:1023B0000C9422086111F9CF67EB71E0DF91CF91A6
:1023C0001F910C94B9112F923F924F925F926F928E
:1023D0007F928F929F92AF92BF92CF92DF92EF92B5
:1023E000FF920F931F93CF93DF93CDB7DEB76C9718
:1023F0000FB6F894DEBF0FBECDBF8C011B01DC0110
:1024000014968C9114978F77863009F49FC268F5E3
:102410008230A0F11296ED90FC901397CC9011961B
:10242000DC90843008F063C2A701B601C1010E94AC
:102430004908F101828193816C960FB6F894DEBF52
:102440000FBECDBFDF91CF911F910F91FF90EF9005
:10245000DF90CF90BF90AF909F908F907F906F90C4
:102460005F904F903F902F9008958C3069F160F409
:10247000883009F466C28A3009F44CC262EB71E01C
:10248000C1010E94B911F2C1803209F4F9C180344E
:10249000A9F76BE5C1010E942208F80100811181B2
:1024A0000115110509F4E7C1B101C8010E94E3114A
:1024B000C8010E94510D8C01892B09F4DCC16CE22A
:1024C000C1010E942208ECCFF801C080D180E280D7
:1024D000F380A7019601C701B6010E94A52A8111C8
:1024E000CDCF20E030E0A901C701B6010E94A52AA6
:1024F000882379F0A7019601C701B6010E94392A05
:102500009B01AC01C701B6010E94A52A882309F4EA
:10251000B5CF20E030E0A901C701B6010E94A52A8D
:1025200087FF08C06DE2C1010E942208F7FAF0940B
:10253000F7F8F09420E836E948E15BE4C701B6011A
:102540000E94042C87FD8EC071E3872E72E0972EC7
:10255000E5E0AE2EB12C00E210E0188E1F8AF5E007
:102560006F2EF2E07F2EF401259135914591549123
:10257000C701B6010E94042C87FD15C07A826982CA
:10258000B501CE0101960E9410099B01AC01C70163
:10259000B6010E94612C6B017C018F89988D800FA0
:1025A000911F988F8F8B1595079594E0891A910844
:1025B000A1E0AA1AB108B8F655245A9420E030E0F8
:1025C000A901C701B6010E94042C18160CF051C0D5
:1025D0002CEA35EC47E257E3C701B6010E94A52A71
:1025E00018160CF446C0B12CA12C652C052C000C3F
:1025F0007708EFEF5E16E9F143018A189B0885E042
:1026000092E09A838983B401CE0101960E94100959
:1026100020E030E040E251E40E94612CA7019601E5
:102620000E94042C1816BCF4ADE1B2E0BA83A98371
:10263000B401CE0101960E9410099B01AC01C701B3
:10264000B6010E94612C6B017C01EF89F88DE01BC3
:10265000F10BF88FEF8B159507955A94FFEFAF1A92
:10266000BF0AC7CF00E210E055E0552E188E1F8A32
:10267000A5CFC701B6010E94232B4B015C012B01A2
:102680003C0106E080E492E4AFE0B0E0898F9A8FED
:10269000AB8FBC8F102F01509AE049165104610492
:1026A0007104C8F0698D7A8D8B8D9C8D2AE030E0A5
:1026B00040E050E00E94F629298F3A8F4B8F5C8FC3
:1026C000C301B2012AE030E040E050E00E94F62968
:1026D00029013A01DFCFC501B4010E94522B9B01B1
:1026E000AC01C701B6010E94382A6B017C01698DDB
:1026F0007A8D8B8D9C8D0E94522B9B01AC01C70162
:10270000B6010E94612C2B013C010E94232B6B011E
:102710007C010E94522B9B01AC01C301B2010E94BB
:10272000382A9B01AC010E94392A0E94232BC60E35
:10273000D71EE81EF91E898D9A8DAB8DBC8DC816EB
:10274000D906EA06FB06D8F09FEF891A990AA90A6A
:10275000B90AAF89B88DAB2B39F1BAE08B16910469
:10276000A104B10408F1EF89F88D3196F88FEF8B51
:10277000C12CD12C7601812C912C540183942AE018
:10278000422E512C612C712CC701B601A30192017C
:102790000E94F629672B682B692B51F4111644F41B
:1027A00069017A011150F0CFC12CD12C7601E7CF0D
:1027B000B501A401C1010E945E08112371F14E010F
:1027C000F1E18F0E911C012F54019AE0492E512CFA
:1027D000612C712C015068F0C701B601A301920170
:1027E0000E94F629605DD4016E934D0169017A0162
:1027F000F1CF812F90E0BC0160957095F501E81B49
:10280000F90B31978EE2808344275527461B570BDF
:102810006A0D7B1DC1010E944908EF89F88DEF2BDD
:1028200029F165E6C1010E9422080F89188D17FF62
:1028300007C06DE2C1010E9422081195019511099E
:10284000FE0177969F018AE0E82EF12CC801B701BE
:102850000E94E229805D82938B01672BB9F7A90161
:102860004E1B5F0BBF01C1010E944908D1011296A6
:102870008D919C91E1CD6DE5C1010E942208F6CFBA
:102880006BE7C1010E942208F80100811181011546
:10289000110559F1D8011696CC9016971796DC9031
:1028A00062E2C1010E9422087601F70161917F0175
:1028B000662321F0C1010E94C311F7CF62E2C1017A
:1028C0000E9422086AE3C1010E942208B101C801E6
:1028D0000E94E311C8010E94510D8C01892B29F03F
:1028E0006CE2C1010E942208D2CF6DE7C5CF62E23F
:1028F000C1010E9422088601E00EF11EE016F106D9
:1029000039F0F80161918F01C1010E94C311F6CF26
:1029100062E2B2CFCD90DD90ED90FC90B701A601C0
:10292000F7FE0BC06DE2C1010E9422084427552723
:10293000BA014C195D096E097F09C1010E945E0848
:1029400078CD4D915D916D917C91F7CF8C9167EA37
:1029500071E0811102C06CEA71E0C1010E94B911FD
:1029600068CDCF93DF9300D000D0CDB7DEB72DE197
:1029700034E03A8329831C821B82BE016F5F7F4F44
:1029800009960E94E3118AE00E9404050F900F90BF
:102990000F900F90DF91CF910895CF92DF92EF9239
:1029A000FF92CF93DF9397FF19C06B017C018DE2FB
:1029B0000E940405EC0166277727CB016C197D097D
:1029C0008E099F094AE00E94DC0D8C0F9D1FDF914C
:1029D000CF91FF90EF90DF90CF9008954AE0DF9184
:1029E000CF91FF90EF90DF90CF900C94DC0D4F9241
:1029F0005F926F927F928F929F92AF92BF92CF928F
:102A0000DF92EF92FF926B017C01AC019B010E946F
:102A1000CE2C882381F08EEB91E0FF90EF90DF9039
:102A2000CF90BF90AF909F908F907F906F905F906E
:102A30004F900C94CF0D46015701E894B7F82FEF53
:102A40003FEF4FE75FE7C501B4010E94CE2C811133
:102A50000DC02FEF3FEF4FE75FE7C501B4010E94C4
:102A6000A52A18161CF482EC91E0D7CF2FEF3FEF88
:102A70004FE75FE4C701B6010E94042C18161CF44E
:102A800086EC91E0CACF2FEF3FEF4FE75FECC70135
:102A9000B6010E94A52A87FDF3CF20E030E0A9010E
:102AA000C701B6010E94A52AB12CA12C87FF08C03E
:102AB0008DE20E9404055C01F7FAF094F7F8F094B7
:102AC0002AE037ED43EA5BE3C701B6010E94392AE9
:102AD0002B013C010E94232B6B017C010E94522B95
:102AE0009B01AC01C301B2010E94382A2B013C01B9
:102AF0004AE0C701B6010E94DC0D7C01EA0CFB1C18
:102B00008EE20E940405E80EF91E20E030E040E26B
:102B100051E4C301B2010E94612C2B013C010E94CF
:102B2000232B4B01B12CA12C4AE0C501B4010E941A
:102B3000DC0DE80EF91EC501B4010E94522B9B0169
:102B4000AC01C301B2010E94382A20E030E040E22B
:102B500051E40E94612C0E94232B90E080E04AE027
:102B60000E94DC0D8E0D9F1DFF90EF90DF90CF90A7
:102B7000BF90AF909F908F907F906F905F904F909D
:102B800008952F923F924F925F926F927F928F9211
:102B90009F92AF92BF92CF92DF92EF92FF920F93EC
:102BA0001F93CF93DF931F92CDB7DEB76983DC010C
:102BB000ED90FC90F70184819581892B09F4FEC08A
:102BC000808191E0909381038093A2031092A803E7
:102BD0001092A70320E041E050E0BE016F5F7F4FFD
:102BE000C7010E94B906882309F4E8C088248394A9
:102BF00085EC382ED7011496CD90DC9001E0C114FD
:102C0000D10409F400E0A02EB12CF70120800E942D
:102C1000B4032B013C0180917B03811165C0102F0F
:102C200080927B0300937A03FFEFF0937903109275
:102C300078038FEF800F8093770380925603809103
:102C40005603220C282A2092560380915503813086
:102C500009F08BC0109255030E94B4032B013C0174
:102C6000809156038093BB0080917D0390917E03F9
:102C7000A0917F03B0918003892B8A2B8B2BA1F02D
:102C80000E94B40320917D0330917E0340917F0325
:102C9000509180036419750986099709261737072B
:102CA0004807590708F441C08091BC0083FDD8CF84
:102CB0003092BC000E94B4032B013C0180917B0345
:102CC000813009F456C080917803801710F4109178
:102CD0007803A7E5B3E0EBE2F3E080E0811751F180
:102CE0009D9191938F5FFACF80917D0390917E03A8
:102CF000A0917F03B0918003892B8A2B8B2B09F441
:102D00008ACF0E94B40320917D0330917E034091CD
:102D10007F03509180036419750986099709261766
:102D200037074807590708F076CF80917C030E9447
:102D3000A80510E01092AA031093A9031A151B040A
:102D4000E9F530E020E02A153B05A8F5D7011196FA
:102D50008D919C91DC01ED91FC910284F385E02D35
:102D6000099521E030E0982EEECF85EE8093BC00EF
:102D7000A1CF80917D0390917E03A0917F03B091BC
:102D80008003892B8A2B8B2B09F498CF0E94B403E4
:102D900020917D0330917E0340917F035091800309
:102DA00064197509860997092617370748075907CF
:102DB00008F084CFBACFCD2809F41CCF892D0F900D
:102DC000DF91CF911F910F91FF90EF90DF90CF9007
:102DD000BF90AF909F908F907F906F905F904F903B
:102DE0003F902F900895BF92CF92DF92EF92FF9283
:102DF0000F931F93CF93DF9300D000D0CDB7DEB7F2
:102E00006C01162FB42E60E0C6010E94C1158C83A0
:102E10008C8181FDF8CF10681B8381E08983EE24CB
:102E2000E394F12C8E010F5F1F4F21E041E050E051
:102E3000BE016D5F7F4FF601808191810E94D706B0
:102E400060E0C6010E94C1158C838C8181FDF8CFA2
:102E5000BA8281E08983EE24E394F12C8E010F5F26
:102E60001F4F21E041E050E0BE016E5F7F4FF60151
:102E7000808191810E94D7060F900F900F900F9044
:102E8000DF91CF911F910F91FF90EF90DF90CF9046
:102E9000BF900895CF93DF93EC016370862F8295E6
:102EA000807F6B816F7C682B6B83CE0103960E94C1
:102EB0004805482F64E0CE01DF91CF910C94F316C2
:102EC000E62FF0E0E05AFE4F608102960C944A171C
:102ED000CF93DF93EC018D81877F8D83CE010596A3
:102EE0000E944405482F67E0CE01DF91CF910C94FA
:102EF000F316CF93DF93DC01E62FF0E0EE0FFF1F18
:102F0000EC59FE4F90819370292F2295207F1796C0
:102F10009C9117979F7C922B17969C931797ED0186
:102F20002296CD0107960E944405482F67E0CE0106
:102F3000DF91CF910C94F316CF93DF93EC0122969F
:102F4000662379F0FC01878188608783CF0107962B
:102F50000E944405482F67E0CE01DF91CF910C9489
:102F6000F316CE01DF91CF910C946817FC012087F6
:102F70002683422F65E002960C94F316CF92DF92DF
:102F8000EF92FF920F931F93CF93DF9300D01F9286
:102F9000CDB7DEB76C01162F60E0C6010E94C115E7
:102FA0008B838B8181FDF8CF1A8381E08983EE24A6
:102FB000E394F12C8E010F5F1F4F21E041E050E0C0
:102FC000BE016E5F7F4FF601808191810E94D7061E
:102FD00060E0C6010E94C1158B838B8180FFF8CF12
:102FE00062E0C6010E94C115898389810F900F900C
:102FF0000F90DF91CF911F910F91FF90EF90DF9095
:10300000CF900895CF92DF92EF92FF920F931F938C
:10301000CF93DF93EC01162F0E94BE17082F61E0BB
:10302000610FCE010E94BE1790E0B0E0A0E07C01ED
:10303000DD24CC24F02A62E0610FCE010E94BE178D
:10304000082F63E0610FCE010E94BE17C82AC70196
:10305000B601702BDF91CF911F910F91FF90EF90F0
:10306000DF90CF900895CF92DF92EF92FF920F936F
:103070001F93CF93DF93CDB7DEB768970FB6F89461
:10308000DEBF0FBECDBF6B0102967C0164E00E94E3
:10309000BE1781FF7FC010E000E00330110509F486
:1030A00067C00CF043C00130110509F44FC0023075
:1030B000110509F454C064E1C7010E940218698334
:1030C0007A838B839C830F5F1F4F0630110529F78E
:1030D0008AE591E0F6019601285E3F4FDC015D91A3
:1030E000CD0144E0549FD001112441E050E04C0F49
:1030F0005D1FA40FB51F4D915D916D917C91419322
:103100005193619371932E173F0741F781E06896C1
:103110000FB6F894DEBF0FBECDBFDF91CF911F91E8
:103120000F91FF90EF90DF90CF900895043011053C
:1031300041F10530110509F0BECF68E2C7010E94D8
:1031400002186D8B7E8B8F8B988FBDCF68E1C70186
:103150000E9402186D837E838F839887B4CF6CE1C1
:10316000C7010E94021869877A878B879C87ABCF3B
:1031700060E2C7010E9402186D877E878F87988B57
:10318000A2CF64E2C7010E940218698B7A8B8B8BF5
:103190009C8B99CF80E0BBCF85ED8093BC00809164
:1031A0007D0390917E03A0917F03B09180030796E9
:1031B000A11DB11D23E0B695A795979587952A95F2
:1031C000D1F72091BC0024FD03C010927B03089529
:1031D00040917D0350917E0360917F037091800345
:1031E000452B462B472B69F30097A105B10541F00C
:1031F0002AE22A95F1F700C00197A109B109E1CFB0
:1032000080917C030C94A8052EE031E0FC01318311
:10321000208382819381009711F00C94A42D08954E
:10322000CF93DF93EC010E940419CE01DF91CF917F
:103230000C94A42DDF92EF92FF920F931F93CF93E4
:10324000DF93EC018A819B81009711F00E94A42DED
:1032500086E090E00E94082D8C018C81F80180832B
:103260008AEB94E092838183138280E290E09583DD
:1032700084831B830A830E94910581E0F801838384
:10328000C8010E942B07D82E81110AC0D12C8D2D88
:10329000DF91CF911F910F91FF90EF90DF900895F4
:1032A0008E010E5F1F4F8D8180688D837E01F5E05A
:1032B000EF0EF11CC7010E944805482F64E0C801C9
:1032C0000E94F3168D818F778D8368EE73E080E026
:1032D00090E00E94D90360E0C8010E94BE178034CC
:1032E000A9F68D8180648D83C7010E944805482F0F
:1032F00064E0C8010E94F3168F818F7C8F83CE011A
:1033000007960E944405482F67E0C8010E94F31603
:10331000C8010E94681782E38E8342E365E0C8011A
:103320000E94F31663E0C8010E944A178D818C60E9
:103330008D83C7010E944805482F64E0C8010E94A0
:10334000F31662E0C8010E944A1748854E8365E083
:10335000C8010E94F3168D81837F88608D83C70129
:103360000E944805482F64E0C8010E94F3168FCFE1
:103370004F925F926F927F928F929F92AF92BF9285
:10338000CF92DF92EF92FF920F931F93CF93DF9331
:10339000EA01009709F455C03B015C010E94D9295C
:1033A0007C01209711F480E053C04301F3010081B8
:1033B0001181C280D380F801EE0DFF1DEC15FD05D3
:1033C00098F48081811107C0A701B501C8010E944E
:1033D000C329892B31F0F80181918F018111FBCF35
:1033E000EACF0115110521F5C70101968C0D9D1D30
:1033F000F401248135812817390758F481E080874A
:103400008C8180788C8310E000E081E0012B01F555
:10341000CACF93838283C114D10491F3A701B5016C
:10342000C6010E94D029F601EE0DFF1D1082860113
:103430008C81807885608C8319830883FB82EA8283
:10344000E4CF209709F4AFCF8C8180788C8381E022
:10345000DF91CF911F910F91FF90EF90DF90CF9070
:10346000BF90AF909F908F907F906F905F904F90A4
:1034700008954F925F926F927F928F929F92AF9238
:10348000BF92CF92DF92EF92FF920F931F93CF9351
:10349000DF93CDB7DEB7C257D1090FB6F894DEBFC0
:1034A0000FBECDBF4B015C016A017901CE010F96C1
:1034B0009A8389839C838B838FE690E08C0F9D1F7A
:1034C0009E838D8398878F8319861E868E010F5F5A
:1034D0001F4FA8016AEC71E0855691090E94941073
:1034E000AC01B8018BE491E00E94B819A80163E631
:1034F00072E0CE010A960E949410FC01892B41F0E3
:10350000948190789C60948380829182A282B3821D
:10351000A80160EC71E0CE010A960E949410FC01B3
:10352000892B61F0948190789A609483C601DD0CB8
:10353000AA0BBB0B80839183A283B383E1961FAF59
:103540000EAFE1978EEC91E0E3969FAF8EAFE397DD
:10355000CE0181599F4F0E94CF102B013C018BEA75
:10356000A82E83E0B82E6701F12C420191E3E92EE9
:10357000D5018D915D01882349F1B9E0BF1508F0AF
:1035800047C0E096EFAEE09786E28F0DE1968FAFF1
:10359000E197E2961FAEE29781149104B9F0A3017E
:1035A000BE0161597F4FC4010E94EF10FC01892BBD
:1035B00069F0D6014D915D916D917C9194819078E7
:1035C0009C6094834083518362837383F394B4E05B
:1035D000CB0ED11CEEE0FE12CBCFC8010E94B1147D
:1035E000CE58DF4F0FB6F894DEBF0FBECDBFDF91D0
:1035F000CF911F910F91FF90EF90DF90CF90BF90F0
:10360000AF909F908F907F906F905F904F900895B4
:1036100080E38F0DE0968FAFE097E1961FAEE197C4
:10362000BBCF8F929F92AF92BF92EF92FF920F9378
:103630001F93CF93DF93CDB7DEB7C654D1090FB632
:10364000F894DEBF0FBECDBF7C014A015B01CE0105
:103650000F969A8389839C838B83C8969E838D83E0
:1036600098878F8319861E868E010F5F1F4FA801D2
:103670006AEC71E0CD970E949410AC01B80187E428
:1036800091E00E94B819A80163ED71E0CE010A969D
:103690000E949410FC01892B79F0D7010D90002035
:1036A000E9F71197AE19BF0984818078846084831B
:1036B000F182E082B383A28320E030E0A901C5015A
:1036C000B4010E94042C87FD12C0A80167ED71E0CF
:1036D000CE010A960E949410FC01892B41F094813E
:1036E00090789C60948380829182A282B382C80188
:1036F0000E94B114CA5BDF4F0FB6F894DEBF0FBE55
:10370000CDBFDF91CF911F910F91FF90EF90BF90B0
:10371000AF909F908F900895EF92FF920F931F9319
:10372000CF93DF93CDB7DEB7C654D1090FB6F89467
:10373000DEBF0FBECDBF7C01CE010F969A83898379
:103740009C838B83C8969E838D8398878F831986ED
:103750001E868E010F5F1F4FA8016AEC71E0CD97A6
:103760000E949410AC01B80181E491E00E94B81964
:10377000A8016FED71E0CE010A960E949410AC0191
:10378000B801C7010E94B819C8010E94B114CA5BF0
:10379000DF4F0FB6F894DEBF0FBECDBFDF91CF91E4
:1037A0001F910F91FF90EF9008952F923F924F92AB
:1037B0005F926F927F928F929F92AF92BF92CF92C1
:1037C000DF92EF92FF920F931F93CF93DF93CDB7CA
:1037D000DEB7CF52D1400FB6F894DEBF0FBECDBFDB
:1037E000382E1092E6021092E5020E94980D8C018C
:1037F000332099F080911B0490911C04029769F486
:103800008DE991E09093E6028093E5028091E502D4
:103810009091E6020E948C1BF8C22BEA33E0C25D55
:10382000DE4F39832883CE52D14089EB93E0F901F2
:103830002191211123C38E179F07D1F788E891E0CA
:10384000E1CF8091000190910101892B09F019C30A
:1038500080911B0490911C04029708F012C32090E1
:10386000B90384E591E0222069F2D801ED91FC9141
:103870000284F385E02DC8010995C75DDE4F88837A
:10388000C952D140FE01E157FF4F88E3DF011D928D
:103890008A95E9F7E059FF4F8CE1DF011D928A9587
:1038A000E9F70E940B04C65DDE4F688379838A8343
:1038B0009B83CA52D140CB5DDE4F19821882C5521C
:1038C000D140412C512C32010E940B04C65DDE4FC9
:1038D000288139814A815B81CA52D140621B730BB6
:1038E000840B950B603177428105910508F467C020
:1038F0006DEA862E62E0962E7E0147ECE40EF11C06
:103900003E015FEF650E711C6E018FE8C80ED11C81
:10391000ABEAB3E0C55EDE4FB983A883CB51D1409B
:103920005701512C8601C75DDE4F3881C952D14005
:10393000351509F49DC14EE0541609F499C1C55ED0
:10394000DE4FA881B981CB51D1408D91C55EDE4F4C
:10395000B983A883CB51D140882319F1F301608149
:103960007181161617060CF07FC1072E000C880B0C
:10397000990B0E94542B9B01AC01D6016D917D9156
:103980008D919C910E94AA2AF501608371838283A4
:103990009383332031F0D4016D937D938D939C9369
:1039A00013975394B4E08B0E911CE4E0AE0EB11C5F
:1039B000F2E06F0E711C24E0C20ED11CB4CF0E9445
:1039C0000B046419750986099709683C710581051E
:1039D000910538F462E070E080E090E00E94D90345
:1039E00073CF0E940B042B013C01D801ED91FC9197
:1039F0000684F785E02DBE016F5F7F4FC8010995F2
:103A0000882309F461CFCB5DDE4FE881F981C5528F
:103A1000D1403196CB5DDE4FF983E883C552D1406A
:103A20009E0121573F4FC35EDE4F39832883CD511E
:103A3000D140AE0141505F4FCF5DDE4F5983488387
:103A4000C152D140CE010196C15EDE4F9983888379
:103A5000CF51D140ADEAB2E0CD5DDE4FB983A8834E
:103A6000C352D140EBEAF3E0C95DDE4FF983E8834E
:103A7000C752D140C55EDE4F1882CB51D140C75DE1
:103A8000DE4FF881C952D140C55EDE4F2881CB514F
:103A9000D140F21709F4C6C02E3009F4C3C0C95D85
:103AA000DE4FA881B981C752D1408D91C95DDE4FEB
:103AB000B983A883C752D140882309F471C0C15E7D
:103AC000DE4FE881F981CF51D140C080D180E280C2
:103AD000F3802220B1F1CD5DDE4FA881B981C352C0
:103AE000D1408D909D90AD90BC9020E030E0A90138
:103AF000C501B4010E94A52A181634F0812C912C1E
:103B000050E8A52E5FE3B52E20E030E0A901C70103
:103B1000B6010E94A52A181634F0C12CD12C40E819
:103B2000E42E4FE3F42EA5019401C701B6010E94D3
:103B3000AA2A0E94092C6B017C01F7FAF094F7F88D
:103B4000F094A7019601C35EDE4FE881F981CD5163
:103B5000D14060817181828193810E94392AC35E44
:103B6000DE4FA881B981CD51D1406D937D938D9366
:103B70009C931397CF5DDE4FE881F981C152D1400C
:103B800080819181019691838083C15EDE4FA881FF
:103B9000B981CF51D140CD92DD92ED92FC92139735
:103BA000C55EDE4FB881CB51D140BF5FC55EDE4FF1
:103BB000B883CB51D140C35EDE4FE881F981CD514E
:103BC000D1403496C35EDE4FF983E883CD51D140B6
:103BD000CF5DDE4F28813981C152D1402E5F3F4FEA
:103BE000CF5DDE4F39832883C152D140C15EDE4FA5
:103BF00048815981CF51D1404C5F5F4FC15EDE4F4C
:103C000059834883CF51D140CD5DDE4F8881998162
:103C1000C352D1400496CD5DDE4F99838883C35251
:103C2000D1402DCF0E940B04C65DDE4F2881398123
:103C30004A815B81CA52D140621B730B840B950B86
:103C40000E94522B20E030E04AE754E40E94AA2A66
:103C50009E012F5F3F4FCB5DDE4F48815981C5529A
:103C6000D1400E94391A30CE60E070E0CB018CCE9A
:103C7000332019F081E08093B9030E94980D5C0114
:103C8000CE010F969A8389839C838B831E830D8339
:103C900018870F8319861E863BEF832E31E0932E03
:103CA000311004C024EF822E21E0922EAE014F5F2E
:103CB0005F4F6A016AEC71E0CE010A960E9494108F
:103CC000AC01B601C4010E94B819311031C0809115
:103CD0001B0490911C048130910509F4B0C082301E
:103CE000910509F4B8C0892B69F4A6016BEE71E067
:103CF000CE010A960E949410AC01B60188EE91E0C4
:103D00000E94B8199CEC892E91E0992E211004C0D4
:103D100088EC882E81E0982EA60163EE71E0CE013A
:103D20000A960E949410AC01B601C4010E94B81911
:103D3000D8011196DC92CE928EEC91E013969C9372
:103D40008E931297C8010E94CF103C01212C4B0189
:103D5000C25DDE4FE881F981CE52D1408191C25DD2
:103D6000DE4FF983E883CE52D140882331F1F9E068
:103D7000F21508F07CC0E1E3D801EC9386E2820DF5
:103D800011968C93119712961C9281149104A9F0AC
:103D9000A301B801C4010E94EF10FC01892B69F056
:103DA000D7014D915D916D917C91948190789C604B
:103DB000948340835183628373832394B4E0EB0E36
:103DC000F11CEEE02E12C4CF31101CC0D501ED91D4
:103DD000FC9102A0F3A1E02DC50109954B015C0106
:103DE000A60167ED71E0CE010A960E949410FC01D5
:103DF000892B41F0948190789C6094838082918299
:103E0000A282B382C6010E94B114C15DDE4F0FB61B
:103E1000F894DEBF0FBECDBFDF91CF911F910F9100
:103E2000FF90EF90DF90CF90BF90AF909F908F90DA
:103E30007F906F905F904F903F902F900895A601D4
:103E40006BEE71E0CE010A960E949410AC01B601AF
:103E50008DED91E055CFA6016BEE71E0CE010A9693
:103E60000E949410AC01B60180ED91E049CF80E34F
:103E7000820DD8018C9311961C9287CF332009F4C0
:103E8000E0CC212CF2CC8F929F92AF92BF92CF9236
:103E9000DF92EF92FF920F931F93CF93DF93CDB7F3
:103EA000DEB7C751D1400FB6F894DEBF0FBECDBF0D
:103EB000CE010F969A8389839C838B8387EB90E056
:103EC0008C0F9D1F9E838D8398878F8319861E86F6
:103ED000DE0111967D01C25FDE4FB983A883CE500B
:103EE000D14088E0FE01E25FFE4FAB5FBE4F019024
:103EF0000D928A95E1F788E0FE01EA5FFE4FDE0150
:103F0000A954BF4F01900D928A95E1F7C154DF4F3C
:103F10001882CF5BD0408AEB93E0C054DF4F998387
:103F20008883C05CD040CD53DF4F1882C35CD04043
:103F3000CC53DF4FF982E882C45CD0404AE0BE0136
:103F4000665F7F4FCE0189549F4F0E945B0E892B85
:103F500059F4CE53DF4F8881C25CD040882309F4E6
:103F6000BAC68E8583FFB7C68AE296E00E948C1B94
:103F700044C28DE50E94040585E595E00E9409058F
:103F8000D801ED91FC9106A8F7A9E02DC80109958B
:103F9000882339F089E495E00E941E098CE20E9492
:103FA00004058CE295E00E94090582E295E00E94FA
:103FB0000905D801ED91FC910088F189E02DC80137
:103FC00009958111E0C084E095E00E940905F12C7B
:103FD000D801ED91FC910288F389E02DC801099583
:103FE000F81690F4FF2019F08CE20E940405D80125
:103FF000ED91FC910488F589E02D6F2DC80109959C
:104000000E941E09F394E4CF8DE50E9404058DE71C
:104010000E9404058CEC94E00E940905D801ED9102
:10402000FC9106A8F7A9E02DC8010995813009F493
:10403000CCC008F4C5C0823009F4CAC0833009F48A
:10404000ECC080E494E00E9409054AE066E070E07C
:1040500080E090E00E94DC0D89E094E00E94090578
:104060004AE065E070E080E090E00E94DC0D8BEFBC
:1040700093E00E94090585EE93E00E940905D801AE
:10408000ED91FC9102A0F3A1E02DC80109950E94D9
:10409000F714D801ED91FC9100A0F1A1E02DC80129
:1040A0000995892B71F089ED93E00E940905D801EB
:1040B000ED91FC9100A0F1A1E02DC80109950E94AD
:1040C0001E09D801ED91FC91068CF78DE02DC801F9
:1040D0000995811140C18CEB93E00E940905F12CF8
:1040E000D801ED91FC9104A0F5A1E02DC80109953E
:1040F000F81608F0B7C0FF2019F08CE20E94040502
:1041000083EB93E00E940905D801ED91FC9106A094
:10411000F7A1E02D6F2DC8010995009711F00E94BD
:10412000CF0D88EA93E00E940905D801ED91FC913A
:1041300000A4F1A5E02D6F2DC80109950E941E096C
:1041400080EA93E00E940905D801ED91FC9102A458
:10415000F3A5E02D6F2DC80109950E94CD1488E9C3
:1041600093E00E940905D801ED91FC9104A4F5A506
:10417000E02D6F2DC80109950E94CD148DE70E9496
:104180000405F394ADCF89EE94E00E940905D801AF
:10419000ED91FC91008CF18DE02DC80109950E94F4
:1041A000F71481EE94E00E940905D801ED91FC918D
:1041B000028CF38DE02DC80109950E94F71427CFDA
:1041C0008EEB94E00E9409053CCF8EEA94E0FACF92
:1041D00080E994E00E940905F12CD801ED91FC9151
:1041E00004ACF5ADE02DC8010995F81690F4FF2058
:1041F00019F08CE20E940405D801ED91FC9106AC07
:10420000F7ADE02D6F2DC80109950E941E09F394AA
:10421000E4CF8DE50E94040514CF83E794E00E946B
:104220000905D801ED91FC9100ACF1ADE02DC8017C
:104230000995BC01990F880B990B0E94CD1489E652
:1042400094E00E940905D801ED91FC9102ACF3AD18
:10425000E02DC8010995BC01990F880B990B0E94AC
:10426000CD14EFCE8DE50E9404058DE70E94040574
:10427000D801ED91FC91EA5BFF4F0190F081E02DB8
:10428000C8010995882309F4B4C089E693E00E9427
:104290000905C12CD801ED91FC91EA5BFF4F01901B
:1042A000F081E02DC8010995C81608F09FC0CC2008
:1042B00019F08CE20E940405D801ED91FC91E85BB5
:1042C000FF4F0190F081E02D4C2DB801CE018954B3
:1042D0009F4F0995C554DF4FE880F980CB5BD040F4
:1042E00080E693E00E940905C954DF4F88819981D7
:1042F000C75BD040009711F00E94CF0D85E593E099
:104300000E940905C754DF4F88819981C95BD0405D
:104310000E941E09E114F10409F447C088E393E008
:104320000E940905D12CC354DF4F8881CD5BD0405A
:10433000D81698F5DD2019F08CE20E940405ED2DC9
:10434000F0E0EE0FFF1FEE0DFF1D859194910E948E
:104350001E09D394E8CF8AE793E00E940905F12C67
:10436000D801ED91FC9100A8F1A9E02DC8010995B3
:10437000F81608F077CFFF2019F08CE20E940405B0
:10438000D801ED91FC9102A8F3A9E02D6F2DC80191
:1043900009950E941E09F394E3CF8DE50E94040560
:1043A0008DE70E940405C39475CF80E293E00E94DC
:1043B0000905C254DF4F68817981CE5BD040072E5A
:1043C000000C880B990B0E94CD1488E193E00E94A9
:1043D0000905C054DF4F68817981C05CD040072E49
:1043E000000C880B990B0E94CD14DACF8DE50E944A
:1043F000040585E193E00E940905C95EDE4F0FB612
:10440000F894DEBF0FBECDBFDF91CF911F910F910A
:10441000FF90EF90DF90CF90BF90AF909F908F90E4
:10442000089567EE71E0C6010E942D2E892B09F0D8
:10443000C4C0C954DF4FF982E882C75BD0408BEE1D
:1044400091E0C754DF4F99838883C95BD04060EF08
:1044500071E0CE0189549F4F0E9460108C0160EF83
:1044600071E00E942D2E892BD9F510921C04109218
:104470001B041092B9030E94980D8C0180911B04BB
:1044800090911C04009709F062C060E086E00E94F1
:10449000680360E085E00E946803D801ED91FC911B
:1044A00006A8F7A9E02DC8010995823009F442C099
:1044B000833089F1813059F4D801ED91FC91E05CB1
:1044C000FF4F0190F081E02D61E0C801099540E0C7
:1044D00050E060E87FEB87EE91E00E94111B8DCFEA
:1044E0006CEF71E0C8010E942D2E892B39F481E018
:1044F00090E090931C0480931B04BBCF67E072E0B4
:10450000C8010E942D2E892B19F482E090E0F1CF92
:104510008DE196E02BCD6091020170910301D801ED
:10452000ED91FC91EE5BFF4F0190F081E02DC80111
:104530000995C2CFD801ED91FC91EC5BFF4F019042
:10454000F081E02D60911A04C8010995B5CFD8011A
:10455000ED91FC9106A8F7A9E02D0197C1F4C801DF
:104560000995882359F0D801ED91FC91E05CFF4F4B
:104570000190F081E02D60E0C801099560E085E0E0
:104580000E94680361E086E00E946803A0CFC80132
:104590000995882359F0D801ED91FC91E05CFF4F1B
:1045A0000190F081E02D60E0C801099560E086E0AF
:1045B0000E94680361E085E0E7CF64E172E0C60134
:1045C0000E942D2E892B51F5C954DF4FF982E882C4
:1045D000C75BD04083EE91E0C754DF4F9983888357
:1045E000C95BD04060E272E0CE0189549F4F0E94C7
:1045F000601064E272E00E942D2E21E030E0892BF1
:1046000011F430E020E0309301012093000140E0FC
:1046100050E060E87FEB84E192E05FCF68E272E017
:10462000C6010E942D2E892B09F01AC1D801ED91E7
:10463000FC9106A8F7A9E02DC8010995813079F011
:1046400008F40BC1823009F45FC0833009F4A6C0BE
:1046500040E050E060E87FEB88E292E03ECF60E32C
:1046600072E0CE010A960E940F10009711F4F12C0F
:104670002DC0FC0184818F778630C9F760E372E03A
:10468000CE010A960E940F10FC01892B81F39481C0
:104690009F77983071F138F4992349F39630A9F057
:1046A000FF24F39413C09A3021F19C30C9F7FF2402
:1046B000F39420E030E0A9016081718182819381CF
:1046C0000E94A52A811102C0D2CFF08080911B04E4
:1046D00090911C04892B09F0BBCFD801ED91FC917E
:1046E000E05CFF4F0190F081E02D6F2DC80109952E
:1046F000AFCFFF24F39480819181A281B381892B74
:104700008A2B8B2B19F7B3CFCA5EDE4F1982188222
:10471000C651D140C954DF4FF982E882C75BD0400F
:1047200083E392E0C754DF4F99838883C95BD0400D
:10473000BE016A5E7E4FCE0189549F4F0E941610C3
:104740007C0197FD85CFD801ED91FC9104ACF5ADCE
:10475000E02DC80109958E151F0409F00CF478CFDF
:10476000E0921A0480911B0490911C04892B09F09B
:104770006FCFD801ED91FC91EC5BFF4F0190F08180
:10478000E02D6E2DC8010995D801ED91FC91E05CFA
:10479000FF4F0190F081E02D61E0A8CFD801ED91AD
:1047A000FC9100ACF1ADE02DC8010995CA5EDE4F69
:1047B00099838883C651D140C954DF4FF982E8827A
:1047C000C75BD04087E392E0C754DF4F998388836B
:1047D000C95BD040BE016A5E7E4FCE0189549F4FB7
:1047E0000E9416107C01D801ED91FC9100ACF1AD56
:1047F000E02DC8010995D801ED91FC91E816F90664
:10480000ECF400ACF1ADE02DC80109957C01F0920B
:104810000301E092020180911B0490911C04892BFA
:1048200009F016CFD801ED91FC91EE5BFF4F01909E
:10483000F081E02DB701C8010995A6CF02ACF3AD18
:10484000E02DC80109958E159F050CF7D801ED9153
:10485000FC9102ACF3ADE02DD7CF89EF95E086CB8C
:104860006FE372E0C6010E942D2E892B09F0A2C0D1
:10487000D801ED91FC910088F189E02DC8010995DE
:1048800081113EC0CA5EDE4F19821882C651D140E6
:10489000C954DF4FF982E882C75BD04083E392E0DE
:1048A000C754DF4F99838883C95BD040BE016A5EDD
:1048B0007E4FCE0189549F4F0E9416107C0197FDB8
:1048C0001CC0D801ED91FC910288F389E02DC8014C
:1048D00009958E151F0489F084F0D801ED91FC91A3
:1048E0000688F789E02D6E2DC801099540E050E05B
:1048F00060E87FEB8FE392E0F0CD87EE95E036CB7A
:10490000D801ED91FC91008CF18DE02DC801099545
:104910006B017C0168E472E0CE010A960E940F10E0
:10492000009799F0FC01848183FF0FC068E472E076
:10493000CE010A960E940F10C12CD12C760100974F
:1049400021F00E94C60B6B017C01D801ED91FC9116
:10495000008CF18DE02DC8010995A70196010E94F8
:10496000042CD801ED91FC91181694F4008CF18D73
:10497000E02DC80109956B017C01D801ED91FC91F6
:10498000048CF58DE02DB701A601C8010995AECFC5
:10499000028CF38DE02DC8010995A70196010E94B4
:1049A000A52A87FFEACFD801ED91FC91028CF38D07
:1049B000E02DDFCF6EE472E0C6010E942D2E892B20
:1049C00009F0C1C0D801ED91FC91068CF78DE02D66
:1049D000C8010995811173C067E572E0CE010A969E
:1049E0000E940410009729F0FC0124816C0125FD30
:1049F00002C0D12CC12CF12CD801ED91FC9104A066
:104A0000F5A1E02DC8010995F81608F08CC0D80171
:104A1000ED91FC9106A0F7A1E02D6F2DC80109953D
:104A20005C01C114D104B9F1BC01C6010E94200E81
:104A3000892B89F1B501C6010E940F10812C912CA0
:104A40005401009721F00E947B0C4B015C01D801BE
:104A5000ED91FC9102A4F3A5E02D6F2DC8010995FD
:104A6000D801ED91FC9186169706A806B906ACF41C
:104A700002A4F3A5E02D6F2DC80109954B015C013F
:104A8000D801ED91FC9106A4F7A5E02DA5019401B4
:104A90006F2DC8010995F394AFCF04A4F5A5E02DBF
:104AA0006F2DC8010995681579058A059B0544F79E
:104AB000D801ED91FC9104A4F5A5E02DDCCFCA5EF0
:104AC000DE4F19821882C651D140C954DF4FF98296
:104AD000E882C75BD0408EE592E0C754DF4F9983F0
:104AE0008883C95BD040BE016A5E7E4FCE01895487
:104AF0009F4F0E9416107C0197FD22C0D801ED91B6
:104B0000FC9100A8F1A9E02DC80109958E151F049C
:104B1000B9F0B4F0D801ED91FC9104A8F5A9E02D0D
:104B20006E2DC8010995D801ED91FC9102A0F3A169
:104B3000E02DC8010995AB01BC018EE492E0CDCC1B
:104B400083ED95E013CA65E672E0C6010E942D2E42
:104B5000892B09F03FC0EBEAF3E01192B3E0E93BA7
:104B6000FB07D9F769E672E0CE010A960E940410AD
:104B7000009749F1FC01248126FF25C0C080D18027
:104B8000BB24B394C114D104F1F0C6010E940B0CF4
:104B90007C0197FD13C0D801ED91FC910284F3854F
:104BA000E02DC80109958E151F0441F03CF0BDE0D1
:104BB000BE1520F0F701E555FC4FB082C6010E94FA
:104BC000510D6C01DFCF40E050E060E87FEB85E6FF
:104BD00092E083CC62E772E0C6010E942D2E892B01
:104BE00009F062C08FEF9FEFCA5EDE4F9983888322
:104BF000C651D140C954DF4FF982E882C75BD0402B
:104C000083E392E0C754DF4F99838883C95BD04028
:104C1000BE016A5E7E4FCE0189549F4F0E941610DE
:104C20006C01CA5EDE4F19821882C651D140C95448
:104C3000DF4FF982E882C75BD04088E492E0C75436
:104C4000DF4F99838883C95BD040BE016A5E7E4F87
:104C5000CE0189549F4F0E9416107C01D7FC21C0C1
:104C6000D801ED91FC91EA5BFF4F0190F081E02DBE
:104C7000C80109958C151D04A1F09CF0D801ED9197
:104C8000FC91E65BFF4F0190F081E02DA7016C2DB8
:104C9000C801099540E050E060E87FEB82E792E0D0
:104CA0001CCC8FEB95E062C96CE772E0C6010E94F4
:104CB0002D2E892B21F481E00E94D51B9ECB68E824
:104CC00072E0C6010E942D2E892B11F480E0F4CFF2
:104CD0008FEA95E04BC9C954DF4FF982E882C75B80
:104CE000D04083ED91E0C754DF4F99838883C95B3F
:104CF000D04066EA71E0CE0189549F4F0E94601057
:104D00006C010E94980D8C0160E972E0C6010E945E
:104D10002D2E892B09F085CB0E94980D8C0187E9F7
:104D200095E00E940905D801ED91FC910680F7817C
:104D3000E02DC80109950E941E0988E895E00E94AF
:104D40000905D801ED91FC910084F185E02DC801A1
:104D500009950E941E098AE795E00E940905F12C39
:104D6000D801ED91FC910284F385E02DC8010995ED
:104D7000F81608F0FEC8FF2019F08CE20E94040526
:104D8000D801ED91FC910484F585E02D6F2DC801CB
:104D900009954B015C0183E795E00E9409056F2DA1
:104DA00070E090E080E04AE00E94DC0D8AE695E049
:104DB0000E940905C4010E941E0980E695E00E9438
:104DC0000905C5010E941E098DE70E940405F394A0
:104DD000C7CF1F920F920FB60F9211242F933F93BC
:104DE0008F939F93AF93BF9380914D0390914E0308
:104DF000A0914F03B091500330914C0323E0230F57
:104E00002D3758F50196A11DB11D20934C038093B9
:104E10004D0390934E03A0934F03B09350038091A2
:104E2000510390915203A0915303B0915403019602
:104E3000A11DB11D8093510390935203A09353037E
:104E4000B0935403BF91AF919F918F913F912F9158
:104E50000F900FBE0F901F90189526E8230F029613
:104E6000A11DB11DD2CF1F920F920FB60F92112428
:104E70002F933F934F935F936F937F938F939F9362
:104E8000AF93BF93EF93FF938DE194E00E9495045D
:104E9000FF91EF91BF91AF919F918F917F916F9112
:104EA0005F914F913F912F910F900FBE0F901F90E8
:104EB00018951F920F920FB60F9211242F938F9374
:104EC0009F93EF93FF93E0912D04F0912E04808146
:104ED000E0913304F091340482FD1BC090818091F5
:104EE00036048F5F8F7320913704821741F0E09171
:104EF0003604F0E0E35EFB4F958F80933604FF911C
:104F0000EF919F918F912F910F900FBE0F901F9057
:104F100018958081F4CF1F920F920FB60F92112433
:104F20002F933F934F935F936F937F938F939F93B1
:104F3000AF93BF93EF93FF938091B900887F803642
:104F400009F44AC0F0F5883209F4A7C018F5803199
:104F500009F49BC0B8F4882309F4F9C0883009F437
:104F600094C0FF91EF91BF91AF919F918F917F91ED
:104F70006F915F914F913F912F910F900FBE0F90C6
:104F80001F901895883109F488C0803251F78093BA
:104F9000790314C0803409F49DC040F48033B9F320
:104FA0008833F9F68093790385ECB0C0803509F435
:104FB00085C0883509F496C0883499F60E94CC18CB
:104FC000D0CF883909F48CC038F5883729F050F4EF
:104FD000883611F0803729F683E080937B031092A6
:104FE0002A0357C0883809F47BC0803919F080380B
:104FF00009F0B7CF80912A03803208F071C0E091A8
:105000002A0381E08E0F80932A038091BB00F0E099
:10501000E65FFC4F80833DC0803B39F0E0F4803A8E
:1050200009F479C0883A09F09CCF84E080937B032F
:105030001092090310920803E091A503F091A603D2
:1050400009958091080381110FC081E080930803C6
:105050001092E80209C0803C09F4A6CF883C09F40C
:10506000A3CF883B09F07DCFE091090381E08E0F4B
:1050700080930903F0E0E851FD4F80818093BB00ED
:10508000909109038091080329C080915603809371
:10509000BB0085EC8093BC0064CF90917803809135
:1050A0007703981758F5E091780381E08E0F80938D
:1050B0007803F0E0E95AFC4F8081E9CFE091780372
:1050C00081E08E0F809378038091BB00F0E0E95A75
:1050D000FC4F808390917803809177039817C8F2F2
:1050E00085E8D8CFE091780381E08E0F8093780334
:1050F0008091BB00F0E0E95AFC4F808380917A03F5
:1051000081115CCF81E08093550384EA8093BC00D9
:1051100010927B0326CF85EC8093BC0010927B031A
:1051200080912A03803230F4E0912A03F0E0E65FB8
:10513000FC4F108260912A0370E0E091A303F0918C
:10514000A4038AE093E0099510922A030ACF1092F3
:10515000790334CFEDE1F4E01382128288EE93E01C
:10516000A0E0B0E084839583A683B78320E731E095
:105170003183208325EC30E03587248724EC30E030
:105180003787268720EC30E0318B208B21EC30E014
:10519000338B228B22EC30E0358B248B26EC30E0F5
:1051A000378B268B118E128E138E148EEAEBF4E061
:1051B0001382128284839583A683B78382E891E069
:1051C000918380830895789484B5826084BD84B58A
:1051D000816084BD85B5826085BD85B5816085BDF2
:1051E00080916E00816080936E00109281008091AA
:1051F0008100826080938100809181008160809332
:105200008100809180008160809380008091B10056
:1052100084608093B1008091B00081608093B00081
:1052200080917A00846080937A0080917A00826015
:1052300080937A0080917A00816080937A008091D7
:105240007A00806880937A001092C100E0912D046A
:10525000F0912E0482E08083E0912904F0912A04E9
:105260001082E0912B04F0912C0480E18083109255
:105270003504E0913104F091320486E08083E091BE
:105280002F04F0913004808180618083E0912F04AD
:10529000F0913004808188608083E0912F04F09148
:1052A0003004808180688083E0912F04F091300485
:1052B00080818F7D80830E940B0486E00E944903D9
:1052C00085E00E94490360E086E00E94680360E098
:1052D00085E00E9468030E9491050E94980DDC0100
:1052E000ED91FC910480F581E02D0995C0E0D0E0BE
:1052F000811127C08DE194E00E947504892B21F073
:105300008DE194E00E94530489E892E00E9409052F
:1053100089E992E00E94CF0D68EE73E080E090E0B2
:105320000E94D903E7CF8D3061F0E0914B03EF3558
:10533000F0F491E09E0F90934B03F0E0E654FC4FA5
:1053400080838DE194E00E947504892B99F08DE1B2
:1053500094E00E9453048A3031F780914B03E82F88
:10536000F0E0E654FC4F108281110E94431F10921E
:105370004B03E7CF209729F30E948104882309F388
:105380000E940000DECFFB01DC0104C08D9105907E
:10539000801921F441505040C8F7881B990B08959B
:1053A000FB01DC0102C005900D9241505040D8F73E
:1053B0000895FC0105900020E9F7809590958E0FE7
:1053C0009F1F0895AA1BBB1B51E107C0AA1FBB1F4B
:1053D000A617B70710F0A61BB70B881F991F5A9581
:1053E000A9F780959095BC01CD010895A1E21A2EF0
:1053F000AA1BBB1BFD010DC0AA1FBB1FEE1FFF1F79
:10540000A217B307E407F50720F0A21BB30BE40BC8
:10541000F50B661F771F881F991F1A9469F760950F
:105420007095809590959B01AC01BD01CF010895C9
:105430000E94292AA59F900DB49F900DA49F800DD6
:10544000911D11240895EE0FFF1F0590F491E02D9A
:105450000994A29FB001B39FC001A39F700D811D4D
:105460001124911DB29F700D811D1124911D08956D
:105470005058BB27AA270E94502A0C94CA2B0E947E
:10548000BC2B38F00E94C32B20F039F49F3F19F455
:1054900026F40C94B92B0EF4E095E7FB0C94B32B97
:1054A000E92F0E94DB2B58F3BA17620773078407B2
:1054B000950720F079F4A6F50C94FD2B0EF4E095F9
:1054C0000B2EBA2FA02D0B01B90190010C01CA01BE
:1054D000A0011124FF27591B99F0593F50F4503E69
:1054E00068F11A16F040A22F232F342F4427585F5B
:1054F000F3CF469537952795A795F0405395C9F773
:105500007EF41F16BA0B620B730B840BBAF091502A
:10551000A1F0FF0FBB1F661F771F881FC2F70EC0C9
:10552000BA0F621F731F841F48F48795779567959C
:10553000B795F7959E3F08F0B0CF9395880F08F088
:105540009927EE0F9795879508950E948F2B08F461
:1055500081E008950E94BE2A0C94CA2B0E94C32B9E
:1055600058F00E94BC2B40F029F45F3F29F00C94C6
:10557000B32B51110C94FE2B0C94B92B0E94DB2BF6
:1055800068F39923B1F3552391F3951B550BBB2772
:10559000AA2762177307840738F09F5F5F4F220FB7
:1055A000331F441FAA1FA9F335D00E2E3AF0E0E8AE
:1055B00032D091505040E695001CCAF72BD0FE2FF8
:1055C00029D0660F771F881FBB1F2617370748078C
:1055D000AB07B0E809F0BB0B802DBF01FF27935844
:1055E0005F4F3AF09E3F510578F00C94B32B0C942A
:1055F000FE2B5F3FE4F3983ED4F38695779567954D
:10560000B795F7959F5FC9F7880F911D9695879578
:1056100097F90895E1E0660F771F881FBB1F621797
:1056200073078407BA0720F0621B730B840BBA0B55
:10563000EE1F88F7E09508950E94232B6894B1111E
:105640000C94FE2B08950E94E32B88F09F5798F04E
:10565000B92F9927B751B0F0E1F0660F771F881F77
:10566000991F1AF0BA95C9F714C0B13091F00E9491
:10567000FD2BB1E008950C94FD2B672F782F882720
:10568000B85F39F0B93FCCF3869577956795B395B8
:10569000D9F73EF490958095709561957F4F8F4F27
:1056A0009F4F0895E89409C097FB3EF4909580952C
:1056B000709561957F4F8F4F9F4F9923A9F0F92FD8
:1056C00096E9BB279395F695879577956795B79556
:1056D000F111F8CFFAF4BB0F11F460FF1BC06F5F3C
:1056E0007F4F8F4F9F4F16C0882311F096E911C04E
:1056F000772321F09EE8872F762F05C0662371F06F
:1057000096E8862F70E060E02AF09A95660F771F82
:10571000881FDAF7880F9695879597F90895990F5E
:105720000008550FAA0BE0E8FEEF16161706E8076B
:10573000F907C0F012161306E407F50798F0621B8C
:10574000730B840B950B39F40A2661F0232B242B61
:10575000252B21F408950A2609F4A140A6958FEF80
:10576000811D811D089597F99F6780E870E060E0D2
:1057700008959FEF80EC089500240A9416161706EA
:1057800018060906089500240A9412161306140632
:1057900005060895092E0394000C11F4882352F095
:1057A000BB0F40F4BF2B11F460FF04C06F5F7F4F4D
:1057B0008F4F9F4F089557FD9058440F551F59F034
:1057C0005F3F71F04795880F97FB991F61F09F3FEE
:1057D00079F087950895121613061406551FF2CF17
:1057E0004695F1DF08C0161617061806991FF1CF67
:1057F00086957105610508940895E894BB2766278E
:105800007727CB0197F908950E948F2B08F48FEF2B
:1058100008950E94192C29ED3BE54EED5EE30C94B2
:10582000612C16F00C94D32C0C94B92B68940C9426
:10583000B32B0E94E32BA8F39923C1F3AEF3DF93BC
:10584000CF931F930F93FF92C92FDD2788232AF050
:105850002197660F771F881FDAF720E030E040E8D5
:105860005FEB9FE3883920F0803E38F021968F77F8
:105870000E94392AE8E6F0E004C00E94392AE5E9EE
:10588000F0E00E94E12C8B01BE01EC01FB2E6F5772
:1058900071097595771F880B990B0E94542B28E18D
:1058A00032E741E35FE30E94742CAF2D9801AE0113
:1058B000FF900F911F91CF91DF910E94502A0C947D
:1058C000CA2B0E94742C0C94CA2B0E94BC2B38F05B
:1058D0000E94C32B20F0952311F00C94B32B0C9451
:1058E000B92B11240C94FE2B0E94DB2B70F3959F97
:1058F000C1F3950F50E0551F629FF001729FBB27C7
:10590000F00DB11D639FAA27F00DB11DAA1F649F62
:105910006627B00DA11D661F829F2227B00DA11D15
:10592000621F739FB00DA11D621F839FA00D611D9B
:10593000221F749F3327A00D611D231F849F600DBC
:10594000211D822F762F6A2F11249F5750409AF0E5
:10595000F1F088234AF0EE0FFF1FBB1F661F771F71
:10596000881F91505040A9F79E3F510580F00C943C
:10597000B32B0C94FE2B5F3FE4F3983ED4F3869553
:1059800077956795B795F795E7959F5FC1F7FE2BDC
:10599000880F911D9695879597F908950E948F2BF2
:1059A000880B990B08959F3F31F0915020F4879513
:1059B00077956795B795880F911D9695879597F977
:1059C0000895DF93CF931F930F93FF92EF92DF928F
:1059D0007B018C01689406C0DA2EEF010E94742CC2
:1059E000FE01E894A5912591359145915591A6F335
:1059F000EF010E94502AFE019701A801DA9469F78D
:105A0000DF90EF90FF900F911F91CF91DF9108955C
:105A10000F931F93CF93DF938230910510F482E0B0
:105A200090E0E091C804F091C90430E020E0B0E0DB
:105A3000A0E0309799F42115310509F44AC0281BDC
:105A4000390B24303105D8F58A819B8161157105A8
:105A500089F1FB0193838283FE0111C04081518152
:105A60000281138148175907E0F04817590799F444
:105A7000109761F012960C93129713961C9332961E
:105A8000CF01DF91CF911F910F9108950093C8042A
:105A90001093C904F4CF2115310551F04217530773
:105AA00038F0A901DB019A01BD01DF01F801C1CF86
:105AB000EF01F9CF9093C9048093C804CDCFFE01C4
:105AC000E20FF31F81939193225031093983288388
:105AD000D7CF2091C6043091C704232B41F42091E5
