:100000000C9416020C943E020C943E020C943E0298
:100010000C943E020C943E020C943E020C943E0260
:100020000C943E020C943E020C943E020C943E0250
:100030000C943E020C943E020C943E020C943E0240
:100040000C94AA270C943E020C941A280C94F427C2
:100050000C943E020C943E020C943E020C943E0220
:100060000C944C280C943E0208000000BE922449D7
:10007000123EABAAAA2ABECDCCCC4C3E00000080DA
:10008000BEABAAAAAA3E00000000BF000000803F4D
:100090000000000000084178D3BB4387D1133D190D
:1000A0000E3CC3BD4282AD2B3E68EC8276BED98F3A
:1000B000E1A93E4C80EFFFBE01C4FF7F3F0000007E
:1000C000000023464630303030002346464135306C
:1000D000300023464646463030002330304330302F
:1000E000300023303030304646002337463030462B
:1000F00046003635306E6D003630306E6D00353767
:10010000306E6D003535306E6D003530306E6D00FF
:100110003435306E6D003634580031365800332E89
:10012000375800315800313030206D4100353020D3
:100130006D41003235206D410031322E35206D4148
:10014000006572726F720061636B0070726F67722C
:10015000657373004D656173757265207468652001
:100160007265666572656E63652066697273742078
:10017000286C6F67202F202D6C6F673130207375CE
:10018000626D6F6465292E004E6F206368616E6E2C
:10019000656C2073656C65637465642E00466C75D0
:1001A0006F72657363656E636520686173206E6F3F
:1001B000207265666572656E6365206D6561737535
:1001C00072656D656E742E00726177006C6F6700EA
:1001D000666C756F72657363656E636500616273EB
:1001E0006F7262616E6365007265666C65637461EF
:1001F0006E636500726573756C74007265665F731B
:100200006176656400CDCCCC3D0AD7233C17B7D1CD
:100210003877CC2B329595E6241FB14F0A00002089
:10022000410000C84200401C4620BCBE4CCA1B0E08
:100230005AAEC59D7441533732363200636F6C6FCE
:100240007200EA00E200DA00D200CA00C200100127
:100250000A010401FE00F800F20023011E011A0148
:10026000160176616C7565207820322E386D73002A
:10027000496E746567726174696F6E2054696D654B
:1002800000390133012D0126017B22657674223A63
:10029000226572726F72222C226D7367223A22538A
:1002A000656E736F72206E6F7420666F756E642E4C
:1002B00020436865636B2049324320776972696E19
:1002C000672E227D000000000800020100000304E8
:1002D00007000000000000000000000000250028CA
:1002E000002B0000000000240027002A0004040462
:1002F00004040404040202020202020303030303CF
:1003000003010204081020408001020408102001AB
:1003100002040810206E756D6265720073656C656D
:100320006374007072657365747300666F726D75C7
:100330006C610065787465726E616C0065787465D7
:10034000726E616C00636F6E74696E756F757300A9
:1003500064697363726574650062696E61727900C5
:100360006E6F6E6500636F6E74696E756F75730086
:10037000646973637265746500666C756F7265732A
:1003800063656E6365006162736F7262616E63655F
:10039000007265666C656374616E636500696E66A4
:1003A0006F00556E6B6E6F776E20636F6D6D616E53
:1003B0006400556E6B6E6F776E2065787472612085
:1003C000706172616D00507265736574206F757431
:1003D000206F662072616E6765004761696E206FED
:1003E0007574206F662072616E676500546869736A
:1003F0002073656E736F7220686173206E6F206367
:100400006F6E74726F6C6C61626C65204C45440059
:10041000556E6B6E6F776E206D6F646500496E76FA
:10042000616C6964204A534F4E006B2911241FBE32
:10043000CFEFD8E0DEBFCDBF13E0A0E0B1E0E2E057
:10044000FEE502C005900D92AA31B107D9F725E06B
:10045000AAE1B3E001C01D92A834B207E1F712E0AF
:10046000C6E1D2E004C02197FE010E94F12AC53105
:10047000D107C9F70E94A4290C94FF2E0C94000008
:100480000895089590E0FC01EF5FFC4F24918351A3
:100490009D4FFC018491882399F090E0880F991F6B
:1004A000FC01ED51FD4FA591B491FC01E752FD4FC8
:1004B000859194918FB7F894EC91E22BEC938FBFD8
:1004C000089590E0FC01EB53FD4F2491FC01EF5F98
:1004D000FC4F3491FC01E351FD4FE491EE23C9F050
:1004E000222339F0233001F1A8F4213019F1223010
:1004F00029F1F0E0EE0FFF1FE752FD4FA591B491F7
:100500008FB7F894EC91611126C030953E233C934F
:100510008FBF08952730A9F02830C9F0243049F75B
:10052000809180008F7D03C0809180008F778093C1
:100530008000DFCF84B58F7784BDDBCF84B58F7D1E
:10054000FBCF8091B0008F778093B000D2CF8091A5
:10055000B0008F7DF9CF3E2BDACF3FB7F894809172
:10056000CF039091D003A091D103B091D20326B5CF
:10057000A89B05C02F3F19F00196A11DB11D3FBFDB
:10058000BA2FA92F982F8827BC01CD01620F711DAA
:10059000811D911D42E0660F771F881F991F4A95A4
:1005A000D1F708958F929F92AF92BF92CF92DF9230
:1005B000EF92FF924B015C010E94AD026B017C0146
:1005C0000E94AD026C197D098E099F09683E734037
:1005D00081059105A8F321E0821A9108A108B108CC
:1005E00088EEC80E83E0D81EE11CF11C8114910432
:1005F000A104B10429F7FF90EF90DF90CF90BF9056
:10060000AF909F908F9008952FB7F8946091CB038F
:100610007091CC038091CD039091CE032FBF0895AC
:10062000AF92BF92CF92DF92EF92FF920F931F9300
:10063000CF93DF936C017B018B01040F151FEB013E
:100640005E01AE18BF08C017D10759F06991D601F5
:10065000ED91FC910190F081E02DC6010995892B67
:1006600079F7C501DF91CF911F910F91FF90EF9026
:10067000DF90CF90BF90AF900895FC01538D448DD3
:10068000252F30E0842F90E0821B930B541710F03D
:10069000CF96089501970895FC01918D828D98174A
:1006A00061F0A28DAE0FBF2FB11D5D968C91928D22
:1006B0009F5F9F73928F90E008958FEF9FEF089553
:1006C000FC01918D828D981731F0828DE80FF11D1C
:1006D000858D90E008958FEF9FEF0895FC01918D37
:1006E000228D892F90E0805C9F4F821B91098F7330
:1006F000992708958BE994E00E946E0321E0892BED
:1007000009F420E0822F089580E090E0892B29F001
:100710000E947A0381110C9400000895FC01A48DBD
:10072000A80FB92FB11DA35ABF4F2C91848D90E013
:1007300001968F739927848FA689B7892C93A089F6
:10074000B1898C91837080648C93938D848D981380
:1007500006C00288F389E02D80818F7D8083089513
:10076000EF92FF920F931F93CF93DF93EC0181E001
:10077000888F9B8D8C8D98131AC0E889F9898081A8
:1007800085FF15C09FB7F894EE89FF896083E889DB
:10079000F98980818370806480839FBF81E090E0CD
:1007A000DF91CF911F910F91FF90EF900895F62E5A
:1007B0000B8D10E00F5F1F4F0F731127E02E8C8DF4
:1007C0008E110CC00FB607FCFACFE889F989808139
:1007D00085FFF5CFCE010E948E03F1CFEB8DEC0F9C
:1007E000FD2FF11DE35AFF4FF0829FB7F8940B8F56
:1007F000EA89FB8980818062CFCFCF93DF93EC01C0
:10080000888D8823B9F0AA89BB89E889F9898C91F8
:1008100085FD03C0808186FD0DC00FB607FCF7CFB4
:100820008C9185FFF2CF808185FFEDCFCE010E94B4
:100830008E03E9CFDF91CF910895FC0180818F7302
:100840000895FC0180818E7F089520918603260FF4
:100850003327331F21323105ECF42091F903FC01D9
:1008600090E080E0243069F082E00895A091860352
:100870002191AC014A595C4FA40FB52FB11D2C93A7
:100880000196861798F380918603680F609386031C
:1008900080E0089581E008951092F90381E080934B
:1008A000F8031092D30361E082E10E94610261E0EB
:1008B00083E10E946102E9EBF0E080818E7F80831A
:1008C00080818D7F808388E48093B80085E4809365
:1008D000BC00089510922804109227041092260458
:1008E000109225040E944C0480E492E0909324042A
:1008F0008093230481E492E0909322048093210466
:100900000895CF93DF9391E0909365038823B9F026
:10091000C091B800D091BA008091BC008A7B8093CE
:10092000BC0060E082E10E94610260E083E10E941D
:1009300061020E944C04D093BA00C093B800DF91CA
:10094000CF9108958F929F92AF92BF92CF92DF92F4
:10095000EF92FF920F931F93CF93DF93D0912504D3
:10096000D13208F0D7C0182FC09120040E94AD02E8
:100970006B017C018091F90381116BC082E080934F
:10098000F9031093F8038FEF8093F7031092F603A7
:10099000D093F503A0E0B4E0E5EDF3E080E0D813F8
:1009A00091C01092D4038091D403CC0FC82BC09374
:1009B000D4038091D303813009F088C01092D3030F
:1009C0000E94AD026B017C018091D4038093BB0037
:1009D0008091FB039091FC03A091FD03B091FE0375
:1009E000892B8A2B8B2BA1F00E94AD020091FB0377
:1009F0001091FC032091FD033091FE036C197D09D9
:100A00008E099F09061717072807390708F442C0FF
:100A10008091BC0083FDD8CF85EC8093BC000E9400
:100A2000AD026B017C018091F903823009F450C062
:100A30008091F7038F3F09F46FC08091F7038032F4
:100A400009F46CC08091F703803309F469C084E035
:100A500026C08091FB039091FC03A091FD03B0910F
:100A6000FE03892B8A2B8B2B09F484CF0E94AD02C5
:100A70008090FB039090FC03A090FD03B090FE03D8
:100A80006C197D098E099F0986169706A806B90676
:100A900008F070CF8091FA030E94810485E01092E3
:100AA0002604109225041092FF03DF91CF911F912D
:100AB0000F91FF90EF90DF90CF90BF90AF909F90FD
:100AC0008F9008959D9191938F5F69CF85EEA5CF0B
:100AD0008091FB039091FC03A091FD03B091FE0374
:100AE000892B8A2B8B2B09F49ECF0E94AD0200919B
:100AF000FB031091FC032091FD033091FE036C1960
:100B00007D098E099F09061717072807390708F07E
:100B10008ACFC0CF81E0C3CF80E0C1CF82E0BFCF1A
:100B200083E0BDCF1F93CF93DF93EA01122FDC0147
:100B300011968D919C91DC01ED91FC910280F381E5
:100B4000E02D0995C817D90729F4812F0E94A20426
:100B500091E0811190E0892FDF91CF911F9108954D
:100B60009F92AF92BF92CF92DF92EF92FF920F933C
:100B70001F93CF93DF93DA01AE0DBF1DEC01EC8123
:100B8000FD81EA17FB0798F1922EEA015B016C01E7
:100B9000FC0181819281208131E03093FF03209319
:100BA00020041092260410922504EF2889F4292DA0
:100BB000AE01B501C601DF91CF911F910F91FF905A
:100BC000EF90DF90CF90BF90AF909F900C949205E4
:100BD0000115110561F3DC01ED91FC910280F381B7
:100BE000E02D41E050E0B8010995019701F380E064
:100BF000DF91CF911F910F91FF90EF90DF90CF90F9
:100C0000BF90AF909F900895CF93DF93EC018B81BD
:100C10008823A1F0888191E09093FF0380932004C2
:100C2000109226041092250481E00E94A20491E013
:100C3000811190E0892FDF91CF9108950E946A047D
:100C400081E08B83CE010E940406982F8111E2CFB0
:100C5000F1CF0895E091280480912704E81730F43B
:100C6000F0E0E755FC4F808190E008958FEF9FEF13
:100C7000089590912804809127042FEF3FEF981753
:100C800048F4E92FF0E0E755FC4F208130E09F5F0A
:100C900090932804C9010895809127049091280415
:100CA000891B990B0895CF92DF92EF92FF920F93D9
:100CB0001F93CF93DF937C01CB018A012091FF0327
:100CC000222389F0EB016B01C40ED51ECC15DD0586
:100CD00069F06991D701ED91FC910190F081E02DCF
:100CE000C7010995F3CF642F0E942504C801DF9145
:100CF000CF911F910F91FF90EF90DF90CF900895CB
:100D0000CF93DF931F92CDB7DEB769832091FF03A6
:100D10002223F9F020912504203258F021E030E020
:100D2000FC013383228390E080E00F90DF91CF912C
:100D3000089580912604E82FF0E0E050FC4F99815F
:100D400090838F5F809326048093250481E090E058
:100D5000ECCF61E0CE0101960E942504F7CF90E030
:100D600080E00895E62FF0E0EE0FFF1FEF57FD4FF4
:100D70008591949108956FEF70E080E090E0089580
:100D800060E070E0CB01089580E792E0089580E98B
:100D900091E00895FC01608570E090E080E00E94A1
:100DA000202C23E333E343E350E40E942F2D0895E6
:100DB00082E692E00895E62FF0E0EE0FFF1FE65A7C
:100DC000FD4F859194910895462F50E0440F551F93
:100DD000FA01E25BFD4F25913491B901FA01EE5B16
:100DE000FD4F25913491C90108958CE392E0089557
:100DF00085E392E008959C01FB01309761F09481B6
:100E000090789A609483C901330FAA0BBB0B80833F
:100E10009183A283B3830895FA01309741F024812E
:100E200020782C6024836083718382839383089568
:100E3000CF93DF93EC0188819981DC01ED91FC91E6
:100E40000190F081E02D09952A813B81820F931F4B
:100E50009B838A83DF91CF910895982F80336CF024
:100E60008A3324F08F3524F08B3724F481E0089501
:100E700081341CF081E09B350CF080E00895CF9325
:100E8000DF93EC0188819981DC01ED91FC91028076
:100E9000F381E02D09952A813B81820F931F9B836B
:100EA0008A83DF91CF9108958F929F92AF92BF92E4
:100EB000CF92DF92EF92FF920F931F93CF93DF9326
:100EC000CDB7DEB766970FB6F894DEBF0FBECDBFC5
:100ED0006C018E01095E1F4F78018AE0882E912CEB
:100EE000A12CB12CCB01BA01A50194010E94C42A06
:100EF000942F852F605DF80162938F01A901692FFE
:100F0000782F411551056105710561F7A7014E1B49
:100F10005F0BBF01C6010E943F0766960FB6F894AB
:100F2000DEBF0FBECDBFDF91CF911F910F91FF901C
:100F3000EF90DF90CF90BF90AF909F908F900895EB
:100F4000FC01848581110AC0A185B285CD0101967D
:100F5000928781878C91838781E084878385089538
:100F60001F93CF93DF93EC01162F0E94A0078113EC
:100F700006C01C8681E0DF91CF911F91089580E02B
:100F8000FACF0F931F93CF93DF938C01EB018991DD
:100F9000882369F0C8010E94A007882379F0FE0128
:100FA0003197908198130DC0F8011486F0CF90E02E
:100FB00080E0DF91CF911F910F91089582E090E042
:100FC000F8CF83E090E0F5CFCF93DF93EC01CE0133
:100FD0000E94A0078B304CF489305CF4882359F0D0
:100FE00081E0888790E080E00BC08D3011F0803286
:100FF000B9F71C86ECCF8885811105C081E090E0AF
:10100000DF91CF91089582E090E0FACF660F771FCD
:10101000660F771FDC01ED91FC91E60FF71F6591DC
:101020007591859194910895DC01ED91FC91119752
:10103000309741F09481907890629483118210826D
:1010400013821282BF0112968D919C910895FC012A
:1010500024813581A9014F5F5F4F868197814817B1
:10106000590748F48281938155834483FC01E20F40
:10107000F31F608308950190F081E02D81E0808767
:1010800008959F92AF92BF92CF92DF92EF92FF921C
:101090000F931F93CF93DF9300D000D01F92CDB753
:1010A000DEB78C010E94A007D82ED8011C961C9296
:1010B000F12CE12C60EFC62EC8010E94A007F801B8
:1010C0001486D81609F4B4C0811113C082E090E0F0
:1010D0000F900F900F900F900F90DF91CF911F9175
:1010E0000F91FF90EF90DF90CF90BF90AF909F90C7
:1010F00008958C3509F09AC0C8010E94A007882382
:1011000029F3E6E9F1E0853709F084C0D8011C969F
:101110001C9254E0952EB12CA12CC8010E94A0076E
:101120008823A1F2813434F48053803130F083E09D
:1011300090E0CECF8F7D8753F8CF44E0AA0CBB1C44
:101140004A95E1F7A82AF80114869A949110E5CF00
:10115000C501985D8115944020F47501F3E0FF22EC
:10116000ABCFC5019C5D81159440A8F483E0B82203
:10117000B701762F6627770F770F6A297B2990E0D2
:1011800080E00196603871058105910540F4C80141
:101190000E94270891CFB50190E080E0F3CF19823B
:1011A000262F2F7320682A8326E0969587957795BA
:1011B00067952A95D1F76032710580F4606C6B8376
:1011C0005E01A4E0AA0EB11CD5016E915D016623FB
:1011D00009F472CFC8010E942708F6CF262F2F737B
:1011E00020682B8386E0769567958A95E1F76031D4
:1011F000710538F4606E6C835E01B5E0AB0EB11C16
:10120000E3CF60686C83CD825E01E6E0AE0EB11C78
:10121000DBCF32969081992309F489CF8913F9CFD6
:101220008181882309F483CFF8011486682FAFCF1A
:101230000190F081E02D8085882319F084E090E012
:1012400047CF90E080E044CF4F925F926F927F92C1
:101250008F929F92AF92BF92CF92DF92EF92FF92C6
:101260000F931F93CF93DF9300D0CDB7DEB77B01F1
:10127000DC012C912B32E1F12D32D9F50196DD24E0
:10128000D394FC01208130ED320F3A3018F02E3229
:1012900009F075C18C0160E070E0CB01F80121918B
:1012A000A0ED4A2E420EB9E09B2E941420F16A392B
:1012B00029E97207820729E1920740F5AAE0B0E028
:1012C0009B01AC010E94E62A512C712C612C530128
:1012D000420180949094A094B09486169706A80634
:1012E000B906A0F0640D751D861D971D8F01D6CF20
:1012F0000196D12CC6CF211109C0DD2009F445C0CB
:1013000061307105810530E89307A8F0C12C5AE0DF
:10131000452E512C612C712C61157105F0E88F0759
:10132000910508F442C0A30192010E94C42ACA0197
:10133000B901C394F1CFD70114962C91149720785A
:101340002A6014962C939B01AC0188279927DC0115
:10135000821B930BA40BB50BF70180839183A283AF
:10136000B3838D2D0F900F90DF91CF911F910F912F
:10137000FF90EF90DF90CF90BF90AF909F908F90B5
:101380007F906F905F904F900895D70114962C91A5
:1013900014972078286014962C93F701608371834A
:1013A00082839383DD24D394DCCFF801D8012D917F
:1013B0008D0130ED320F3A3010F4C394F6CF2E3257
:1013C00001F58F010F5F1F4FF8010F5F1F4F208145
:1013D00040EDB42EB20EB9E0BB1598F06C3CECECCD
:1013E0007E07ECE08E07910578F7AAE0B0E09B015C
:1013F000AC010E94E62A6B0D711D811D911DCA94DE
:10140000E3CF20812F7D10E000E0253409F065C096
:1014100021812D3209F042C0329621E0DF0110E037
:1014200000E04C2D0C2C000C550B3AE0B32EFD01C6
:101430003D910F2EF0EDAF2EF02DA30E0F2EF9E003
:101440009F2EF02D9A1408F443C0B09EF001B19E77
:10145000F00D1124032F330F110B005311090E0F40
:101460001F1FF801E40FF51FB7970CF3D70114966F
:101470008C912223D1F040E050E060E070E8D11080
:1014800003C040E050E0BA0180788C60F7018483AB
:101490004083518362837383D22E63CF2B3219F042
:1014A000319620E0BBCF3296FCCF40E050E060E8C0
:1014B0007FEFD11004C040E050E060E87FE7807823
:1014C0008C60F701848340835183628373836ACF86
:1014D000222319F0119501951109208121114FC086
:1014E0000C0D111DC7FC1A950E94202C2B013C01EC
:1014F0001016110614F58DE192E09A838983B12CC0
:10150000A12C0115110539F1B6E0AB16B104E9F0D3
:1015100000FF0DC0B501CE0101960E9406089B0197
:10152000AC01C301B2010E942F2D2B013C01159586
:101530000795EFEFAE1ABE0AE4CF85E092E09A83FA
:101540008983119501951109DACF412C512C80EC3A
:10155000682E8FE7782EDD2021F077FA709477F8E7
:101560007094D70114968C91149780788C6014969F
:101570008C93F701408251826282738213CFD12C07
:10158000F0CECF93DF9300D000D01F92CDB7DEB75F
:10159000FC0194819F77963091F030F4943020F5DF
:1015A00060E070E0CB0111C09A30B9F09C3049F195
:1015B0009830B1F7608171818281938104C060812C
:1015C00070E090E080E00E94202C0F900F900F9030
:1015D0000F900F90DF91CF9108956081718182818A
:1015E00093810E94222CF1CF808191811D82BE01C6
:1015F0006F5F7F4F0E942409CE0101960E94C10AAD
:10160000E4CF6081718182819381DFCFCF92DF92BD
:10161000EF92FF92CF93DF9300D000D01F92CDB70F
:10162000DEB7FC0184818F778630B9F028F48430EE
:1016300088F590E080E013C08A30E9F08C30B9F191
:101640008830B9F780819181A281B381811520E82A
:101650009207A105B10568F702C0808190E00F9064
:101660000F900F900F900F90DF91CF91FF90EF9020
:10167000DF90CF90089580819181A281B381AC01E8
:10168000BD0150586F4F7F4F4115510561407105A5
:1016900080F6E5CF808191811D82BE016F5F7F4F13
:1016A0000E942409CE0101960E94060BD8CFC0806B
:1016B000D180E280F38020E030E040E057ECC701C9
:1016C000B6010E94D22C87FDB4CF20E03EEF4FEF51
:1016D00056E4C701B6010E94732B18160CF4A9CF6B
:1016E000C701B6010E94EA2BCB01B9CFCF92DF929E
:1016F000EF92FF92CF93DF9300D000D01F92CDB72F
:10170000DEB7FC0184818F778630A1F030F484301D
:1017100030F560E070E0CB0111C08A30D9F08C3038
:1017200059F18830B1F7608171818281938197FF8F
:1017300005C0EFCF608170E090E080E00F900F90E7
:101740000F900F900F90DF91CF91FF90EF90DF906F
:10175000CF9008956081718182819381EFCF8081E4
:1017600091811D82BE016F5F7F4F0E942409CE01CF
:1017700001960E94760BE2CFC080D180E280F38098
:1017800020E030E040E05FECC701B6010E94D22CBF
:1017900087FDBFCF2FEF3FEF4FEF5EE4C701B601EC
:1017A0000E94732B18160CF4B4CFC701B6010E9427
:1017B000EA2BC4CFCF93DF93DC01EB01EC81FD81F9
:1017C0008A819B810896E817F90740F481E08887B1
:1017D000F0E0E0E0CF01DF91CF9108953897FD83ED
:1017E000EC833097B9F31296CD91DC911397209743
:1017F00091F0CF018C1B9D0B23E0959587952A9541
:10180000E1F78D831396FC93EE9312971582148261
:1018100017821682DFCF1196FC93EE93F3CFCF930E
:10182000DF93EC018881998140E050E0BA01009794
:1018300039F06A817B810E94DA0BAC016A817B817D
:10184000CB01BA01DF91CF910895EF92FF920F93F0
:101850001F93CF93DF937C01DC0112962D913C9175
:101860001397ED91FC91AB01420F531FEF01C60F8F
:10187000D71FC217D307A0F4888181110BC0E901DB
:10188000CF014C175D0751F00991DC011D91CD018D
:101890000117B9F381918111FDCFE8CF309751F451
:1018A000620F731FCB010196F70193838283DB01E3
:1018B0001C92F901CF01DF91CF911F910F91FF9001
:1018C000EF900895FC012581222339F0F8E02F02E2
:1018D00090011124820F931F089590E080E00895F5
:1018E000EF92FF920F931F93CF93DF9361157105D2
:1018F00019F17B018C01FC01C081D181209731F06D
:10190000CE010E94620CE816F906E9F4C7010E94B4
:10191000620C2097D1F020E0009741F09C012C1B35
:101920003D0B43E0359527954A95E1F72D83892BAB
:1019300019F4F801D383C283DF91CF911F910F91E6
:10194000FF90EF900895EC01D9CFF8019183808347
:10195000EECF80912303811113C08EE091E090932C
:101960001B0380931A0310921D0310921C0389E439
:1019700080931E0382E38093220381E080932303FC
:101980008AE193E0089584E0089582E0089581E07B
:10199000089580E0089586E0089508952BE0FC0105
:1019A00011922A95E9F7089580E008950895089521
:1019B00090E080E00895089560E070E0CB01089524
:1019C000CF93DF936115710589F1EB01FC018081F3
:1019D0009181009769F1FC01A681B781FE01019018
:1019E0000020E9F73197AF014C1B5D0B30E020E0A0
:1019F000109749F0FD0101900020E9F79F01215067
:101A000031092A1B3B0B4217530769F49E01BA01A7
:101A10006C0F7D1F6217730759F0F90151919F01F7
:101A20004D915417B9F30E94620CD3CF90E080E03F
:101A3000DF91CF9108959F92AF92BF92CF92DF92A4
:101A4000EF92FF920F931F93CF93DF93EC017B01F3
:101A5000D42E0E94E4078C01892B09F052C0CE01DC
:101A60000E94A007863609F455C194F5873229F003
:101A70008B35D1F1823209F056C1E881F98182813A
:101A800093819B838A838481958122813381821B08
:101A9000930B9F838E831D821C82892B11F481E01E
:101AA0008087CE010E9441088C01892B51F5AC80C2
:101AB000BD80B501888199810E94250CF7012481A0
:101AC00020782560248391838083B382A28219C009
:101AD000843709F408C18B3709F453C08E3609F0F6
:101AE00022C162EB71E008C1F701848180788064D3
:101AF00084831182108213821282D1100FC005E0FC
:101B000010E0C801DF91CF911F910F91FF90EF90EE
:101B1000DF90CF90BF90AF909F9008951C86CE012C
:101B20000E94E407009709F02DC16DE5CE010E94E7
:101B3000B0078111E6CFDA946D857E85C7010E94DA
:101B4000DA0B009709F46EC04D2DBC01CE010E9446
:101B50001B0D009709F016C1CE010E94E407009703
:101B600009F010C16DE5CE010E94B0078111C9CF07
:101B70006CE2CE010E94B0078111DECF03E010E0DD
:101B8000C0CFF701848180788062848311821082C3
:101B900013821282DD2009F4B2CF1C86CE010E948E
:101BA000E407009709F0EEC06DE7CE010E94B00790
:101BB0008111A7CFBB24B394DA94E881F9818281A3
:101BC00093819B838A838481958122813381821BC7
:101BD000930B9F838E831D821C82892B09F4B08610
:101BE000CE010E94A007873201F18232F1F0CE01CE
:101BF0000E94A007182F0E942D07882309F4BECF4A
:101C00001C86612FCE010E942708CE010E94A007EA
:101C1000182F0E942D078111F3CFE881F98180856B
:101C2000882351F004E010E06CCFCE010E944108FF
:101C30008C01892B09F065CFCE010E94E4078C014D
:101C4000892B09F05ECF6AE3CE010E94B00788239A
:101C500009F494CFEA81FB818C819D81E80FF91F03
:101C600010820C811D816A817B81C7010E94E00C7A
:101C7000BC01892BA1F4B801888199810E94250CAF
:101C80008C016D857E85C7010E94DA0BFC01892BD2
:101C900049F284818068848317830683BF014D2DB8
:101CA000CE010E941B0D8C01892B09F02ACFCE0199
:101CB0000E94E4078C01892B09F023CF6DE7CE0148
:101CC0000E94B00781111DCF6CE2CE010E94B007C7
:101CD000882309F453CFCE010E94E4078C01892B9D
:101CE00009F46BCF0ECFF7018481807886608483FE
:101CF00081E0808367EA71E0CE01DF91CF911F918F
:101D00000F91FF90EF90DF90CF90BF90AF909F909A
:101D10000C94C107F70184818078866084831082E7
:101D20006CEA71E0E9CFCE010E94A0075E01FFE0FE
:101D3000AF0EB11CD12C9A2CCB2C803374F08A338B
:101D400074F49FE3D91699F01C86D394F50181931E
:101D50005F01CE010E94A007F0CF8B3291F393ED8B
:101D6000980F923070F3982F9F7D953451F3CD0DDD
:101D7000D11D1F86B701892D9C2D0E942409811138
:101D8000C0CEFCCE8C01BDCEFC01248125FF04C059
:101D9000009711F00C94E00C90E080E0089500971B
:101DA00011F00C94C40E90E080E00895EF92FF9241
:101DB0000F931F93CF93DF937B01FC01028113816B
:101DC000C081D1812996B801CE010E94CF0EFC01BD
:101DD000892B31F084818F77883061F08A3009F166
:101DE000F70180819181DF91CF911F910F91FF9039
:101DF000EF90089580819181A281B38181159048EF
:101E0000A105B10568F7B801CE010E94CF0E009779
:101E1000A1F0DF91CF911F910F91FF90EF900C9463
:101E2000060B80819181A281B3819058AF4FBF4F43
:101E30000097A140B105A0F6E6CF90E080E0D3CFB7
:101E4000EF92FF920F931F93CF93DF93EB01FC016F
:101E5000E280F38000811181075F1F4FB701C80145
:101E60000E94CF0E0097C1F0FC0184818F778450CF
:101E7000823090F4B701C8010E94CF0EFC01892B7B
:101E800031F084818F77843029F0853019F0D0E0EB
:101E9000C0E002C0C081D181CE01DF91CF911F91FE
:101EA0000F91FF90EF900895EF92FF920F931F9381
:101EB000CF93DF93EC018C81982F9F7739F4807852
:101EC00080628C83198218821B821A828C8185FF22
:101ED00016C06115710599F07A018B01CE010E943F
:101EE000E00C0097A9F4B701CE010E94DA0BFC01C7
:101EF000892B41F470E060E0CE010E94700C80E01C
:101F000090E006C084818F77848317830683CF0196
:101F1000DF91CF911F910F91FF90EF90089500975F
:101F200011F00C94540F90E080E00895CF93DF936C
:101F3000EC014B815C816D817E8189819A810E9457
:101F40008F0FFC01892B41F0848180788064848329
:101F50001182108213821282BF018B819C81DF91DA
:101F6000CF910895CF93DF93EC01888199816A81A5
:101F70007B81AC0109960E948F0FFC01892B41F0F7
:101F8000848180788062848311821082138212821D
:101F9000BF0188819981DF91CF910895CF92DF921F
:101FA000EF92FF92FC01C080D180E280F380A70114
:101FB000C6010E948F0FFC01892B41F0848180783B
:101FC000806284831182108213821282BF01C70152
:101FD000FF90EF90DF90CF900895CF93DF93EC01C7
:101FE000AC0109960E948F0FFC01892B41F084817E
:101FF0008078806484831182108213821282BF01F0
:10200000CE01DF91CF910895CF93DF93EC01FB01D7
:10201000309729F094819078209721F49483DF9170
:10202000CF910895DE010D900020E9F71197AC1BC8
:10203000BD0B94609483D183C083B383A283EFCF1D
:102040008F929F92AF92BF92CF92DF92EF92FF92C8
:102050000F931F93CF93DF93FC018481982F9F7779
:1020600039F4807880628483118210821382128214
:10207000848185FF40C061157105E9F17A01EB01AA
:102080008F0180819181009759F1FC01A681B78170
:10209000FE0101900020E9F73197AF014C1B5D0B69
:1020A00030E020E0109749F0FD0101900020E9F7B1
:1020B0009F01215031092A1B3B0B4217530769F43A
:1020C0009E01BA016C0F7D1F26173707B1F0F90189
:1020D00051919F014D915417B9F30E94620CD3CFD7
:1020E000B701C8010E94DA0B4C01892B99F4B401A5
:1020F000C8010E94700C80E090E0DF91CF911F91A9
:102100000F91FF90EF90DF90CF90BF90AF909F9096
:102110008F900895DE010D900020E9F79D01215078
:1021200031092C1B3D0BD701ED91FC9111971296B3
:102130008D919C916901CC0EDD1EAF01420F531FA2
:1021400048175907B8F4DA014C9141110DC0BF018D
:10215000AE014C155D0561F0DB01AD90BD01DA010A
:10216000BD90AD01AB14A9F341914111FDCFE5CF75
:10217000309711F5A9014F5F5F4F480F591FF701C5
:10218000648175816417750718F481E08087AFCF8B
:1021900053834283009709F4AACFFC01B9016C0F65
:1021A0007D1FC617D70719F049914193FACF280F21
:1021B000391FF9011082FC01D40114968C911497F7
:1021C000806814968C9314971796FC93EE93169749
:1021D000C40193CFFB0101900020E9F73197AF01D3
:1021E000461B570B0C943F071F93CF93DF93E6E9F1
:1021F000F1E01281112379F0329621816213F9CF37
:10220000EC016CE50E941807612FCE01DF91CF91A0
:102210001F910C9418076111F9CF67EB71E0DF9102
:10222000CF911F910C94EA102F923F924F925F92A0
:102230006F927F928F929F92AF92BF92CF92DF92D6
:10224000EF92FF920F931F93CF93DF93CDB7DEB73B
:102250006C970FB6F894DEBF0FBECDBF8C011B018B
:10226000DC0114968C9114978F77863009F49FC205
:1022700068F58230A0F11296ED90FC901397CC9007
:102280001196DC90843008F063C2A701B601C10149
:102290000E943F07F101828193816C960FB6F894FA
:1022A000DEBF0FBECDBFDF91CF911F910F91FF9089
:1022B000EF90DF90CF90BF90AF909F908F907F90E6
:1022C0006F905F904F903F902F9008958C3069F100
:1022D00060F4883009F466C28A3009F44CC262EBBB
:1022E00071E0C1010E94EA10F2C1803209F4F9C123
:1022F0008034A9F76BE5C1010E941807F80100813D
:1023000011810115110509F4E7C1B101C8010E944D
:102310001411C8010E94620C8C01892B09F4DCC1E4
:102320006CE2C1010E941807ECCFF801C080D18097
:10233000E280F380A7019601C701B6010E94732BCA
:102340008111CDCF20E030E0A901C701B6010E9484
:10235000732B882379F0A7019601C701B6010E946B
:10236000072B9B01AC01C701B6010E94732B882388
:1023700009F4B5CF20E030E0A901C701B6010E9401
:10238000732B87FF08C06DE2C1010E941807F7FA9E
:10239000F094F7F8F09420E836E948E15BE4C701EF
:1023A000B6010E94D22C87FD8EC071E3872E72E0A9
:1023B000972EE5E0AE2EB12C00E210E0188E1F8AB9
:1023C000F5E06F2EF2E07F2EF401259135914591D5
:1023D0005491C701B6010E94D22C87FD15C07A82A4
:1023E0006982B501CE0101960E9406089B01AC01ED
:1023F000C701B6010E942F2D6B017C018F89988D3A
:10240000800F911F988F8F8B1595079594E0891AEF
:102410009108A1E0AA1AB108B8F655245A9420E010
:1024200030E0A901C701B6010E94D22C18160CF0A9
:1024300051C02CEA35EC47E257E3C701B6010E94D0
:10244000732B18160CF446C0B12CA12C652C052C4E
:10245000000C7708EFEF5E16E9F143018A189B083C
:1024600085E092E09A838983B401CE0101960E94AF
:10247000060820E030E040E251E40E942F2DA70141
:1024800096010E94D22C1816BCF4ADE1B2E0BA83DA
:10249000A983B401CE0101960E9406089B01AC01FC
:1024A000C701B6010E942F2D6B017C01EF89F88DC9
:1024B000E01BF10BF88FEF8B159507955A94FFEF02
:1024C000AF1ABF0AC7CF00E210E055E0552E188EB4
:1024D0001F8AA5CFC701B6010E94F12B4B015C01F9
:1024E0002B013C0106E080E492E4AFE0B0E0898F8C
:1024F0009A8FAB8FBC8F102F01509AE04916510470
:1025000061047104C8F0698D7A8D8B8D9C8D2AE0F1
:1025100030E040E050E00E94C42A298F3A8F4B8F70
:102520005C8FC301B2012AE030E040E050E00E943D
:10253000C42A29013A01DFCFC501B4010E94202C31
:102540009B01AC01C701B6010E94062B6B017C0107
:10255000698D7A8D8B8D9C8D0E94202C9B01AC0106
:10256000C701B6010E942F2D2B013C010E94F12BC7
:102570006B017C010E94202C9B01AC01C301B201C4
:102580000E94062B9B01AC010E94072B0E94F12B9D
:10259000C60ED71EE81EF91E898D9A8DAB8DBC8D97
:1025A000C816D906EA06FB06D8F09FEF891A990AE1
:1025B000A90AB90AAF89B88DAB2B39F1BAE08B16ED
:1025C0009104A104B10408F1EF89F88D3196F88FD8
:1025D000EF8BC12CD12C7601812C912C540183944A
:1025E0002AE0422E512C612C712CC701B601A301A7
:1025F00092010E94C42A672B682B692B51F4111693
:1026000044F469017A011150F0CFC12CD12C76012C
:10261000E7CFB501A401C1010E945407112371F154
:102620004E01F1E18F0E911C012F54019AE0492EC9
:10263000512C612C712C015068F0C701B601A30127
:1026400092010E94C42A605DD4016E934D0169011C
:102650007A01F1CF812F90E0BC0160957095F50172
:10266000E81BF90B31978EE2808344275527461BE0
:10267000570B6A0D7B1DC1010E943F07EF89F88D42
:10268000EF2B29F165E6C1010E9418070F89188D0B
:1026900017FF07C06DE2C1010E941807119501954F
:1026A0001109FE0177969F018AE0E82EF12CC801FE
:1026B000B7010E94B02A805D82938B01672BB9F726
:1026C000A9014E1B5F0BBF01C1010E943F07D10151
:1026D00012968D919C91E1CD6DE5C1010E94180784
:1026E000F6CF6BE7C1010E941807F8010081118144
:1026F0000115110559F1D8011696CC901697179629
:10270000DC9062E2C1010E9418077601F701619135
:102710007F01662321F0C1010E94F410F7CF62E22D
:10272000C1010E9418076AE3C1010E941807B101A4
:10273000C8010E941411C8010E94620C8C01892BEF
:1027400029F06CE2C1010E941807D2CF6DE7C5CF16
:1027500062E2C1010E9418078601E00EF11EE01638
:10276000F10639F0F80161918F01C1010E94F41066
:10277000F6CF62E2B2CFCD90DD90ED90FC90B70144
:10278000A601F7FE0BC06DE2C1010E9418074427A5
:102790005527BA014C195D096E097F09C1010E94D4
:1027A000540778CD4D915D916D917C91F7CF8C91CF
:1027B00067EA71E0811102C06CEA71E0C1010E9418
:1027C000EA1068CDCF93DF9300D000D0CDB7DEB74D
:1027D0002BE934E03A8329831C821B82BE016F5FA0
:1027E0007F4F09960E9414116AE08BE994E00E94E1
:1027F000B0030F900F900F900F90DF91CF9108953D
:102800002F923F924F925F926F927F928F929F9200
:10281000AF92BF92CF92DF92EF92FF920F931F93EE
:10282000CF93DF931F92CDB7DEB76983DC01ED90C4
:10283000FC90F70184819581892B09F4FEC0808189
:1028400091E09093FF03809320041092260410924D
:10285000250420E041E050E0BE016F5F7F4FC701DB
:102860000E949205882309F4E8C08824839485ECAB
:10287000382ED7011496CD90DC9001E0C114D1041C
:1028800009F400E0A02EB12CF70120800E94AD02D7
:102890002B013C018091F903811165C0102F8092BA
:1028A000F9030093F803FFEFF093F7031092F60398
:1028B0008FEF800F8093F5038092D4038091D4032F
:1028C000220C282A2092D4038091D303813009F06E
:1028D0008BC01092D3030E94AD022B013C0180916A
:1028E000D4038093BB008091FB039091FC03A091E3
:1028F000FD03B091FE03892B8A2B8B2BA1F00E9444
:10290000AD022091FB033091FC034091FD035091F7
:10291000FE036419750986099709261737074807C2
:10292000590708F441C08091BC0083FDD8CF309294
:10293000BC000E94AD022B013C018091F903813063
:1029400009F456C08091F603801710F41091F60335
:10295000A5EDB3E0E9EAF3E080E0811751F19D9144
:1029600091938F5FFACF8091FB039091FC03A0912C
:10297000FD03B091FE03892B8A2B8B2B09F48ACFA0
:102980000E94AD022091FB033091FC034091FD03B6
:102990005091FE03641975098609970926173707B0
:1029A0004807590708F076CF8091FA030E94810406
:1029B00010E010922804109327041A151B04E9F55F
:1029C00030E020E02A153B05A8F5D70111968D913E
:1029D0009C91DC01ED91FC910284F385E02D099539
:1029E00021E030E0982EEECF85EE8093BC00A1CFA1
:1029F0008091FB039091FC03A091FD03B091FE0335
:102A0000892B8A2B8B2B09F498CF0E94AD02209141
:102A1000FB033091FC034091FD035091FE036419C8
:102A2000750986099709261737074807590708F0D7
:102A300084CFBACFCD2809F41CCF892D0F90DF9118
:102A4000CF911F910F91FF90EF90DF90CF90BF90AB
:102A5000AF909F908F907F906F905F904F903F903E
:102A60002F900895BF92CF92DF92EF92FF920F9333
:102A70001F93CF93DF9300D000D0CDB7DEB76C01AA
:102A8000162FB42E60E0C6010E9400148C838C8146
:102A900081FDF8CF10681B8381E08983EE24E394E5
:102AA000F12C8E010F5F1F4F21E041E050E0BE018D
:102AB0006D5F7F4FF601808191810E94B00560E0DB
:102AC000C6010E9400148C838C8181FDF8CFBA82EC
:102AD00081E08983EE24E394F12C8E010F5F1F4F78
:102AE00021E041E050E0BE016E5F7F4FF601808142
:102AF00091810E94B0050F900F900F900F90DF9181
:102B0000CF911F910F91FF90EF90DF90CF90BF90EA
:102B10000895CF93DF93EC016370862F8295807FB9
:102B20006B816F7C682B6B83CE0103960E9421041E
:102B3000482F64E0CE01DF91CF910C943215E62F3F
:102B4000F0E0E05AFE4F608102960C948915CF9315
:102B5000DF93EC018D81877F8D83CE0105960E94E6
:102B60001D04482F67E0CE01DF91CF910C94321500
:102B7000CF93DF93DC01E62FF0E0EE0FFF1FEC595F
:102B8000FE4F90819370292F2295207F17969C915C
:102B900017979F7C922B17969C931797ED0122967F
:102BA000CD0107960E941D04482F67E0CE01DF91FA
:102BB000CF910C943215CF93DF93EC0122966623CC
:102BC00079F0FC01878188608783CF0107960E9496
:102BD0001D04482F67E0CE01DF91CF910C94321590
:102BE000CE01DF91CF910C94A715FC01208726839D
:102BF000422F65E002960C943215CF92DF92EF924D
:102C0000FF920F931F93CF93DF9300D01F92CDB706
:102C1000DEB76C01162F60E0C6010E9400148B83A2
:102C20008B8181FDF8CF1A8381E08983EE24E394C0
:102C3000F12C8E010F5F1F4F21E041E050E0BE01FB
:102C40006E5F7F4FF601808191810E94B00560E048
:102C5000C6010E9400148B838B8180FFF8CF62E055
:102C6000C6010E940014898389810F900F900F90F4
:102C7000DF91CF911F910F91FF90EF90DF90CF9058
:102C80000895CF92DF92EF92FF920F931F93CF930D
:102C9000DF93EC01162F0E94FD15082F61E0610FF4
:102CA000CE010E94FD1590E0B0E0A0E07C01DD24A3
:102CB000CC24F02A62E0610FCE010E94FD15082F9E
:102CC00063E0610FCE010E94FD15C82AC701B6015D
:102CD000702BDF91CF911F910F91FF90EF90DF90BC
:102CE000CF900895CF92DF92EF92FF920F931F93B0
:102CF000CF93DF93CDB7DEB768970FB6F894DEBFFA
:102D00000FBECDBF6B0102967C0164E00E94FD15F1
:102D100081FF7FC010E000E00330110509F467C0B7
:102D20000CF043C00130110509F44FC00230110509
:102D300009F454C064E1C7010E94411669837A8393
:102D40008B839C830F5F1F4F0630110529F78AE59F
:102D500091E0F6019601285E3F4FDC015D91CD01C7
:102D600044E0549FD001112441E050E04C0F5D1F1E
:102D7000A40FB51F4D915D916D917C91419351933D
:102D8000619371932E173F0741F781E068960FB664
:102D9000F894DEBF0FBECDBFDF91CF911F910F9191
:102DA000FF90EF90DF90CF9008950430110541F12E
:102DB0000530110509F0BECF68E2C7010E94411637
:102DC0006D8B7E8B8F8B988FBDCF68E1C7010E9482
:102DD00041166D837E838F839887B4CF6CE1C701E2
:102DE0000E94411669877A878B879C87ABCF60E208
:102DF000C7010E9441166D877E878F87988BA2CF6F
:102E000064E2C7010E944116698B7A8B8B8B9C8B85
:102E100099CF80E0BBCF85ED8093BC008091FB0310
:102E20009091FC03A091FD03B091FE030796A11DB4
:102E3000B11D23E0B695A795979587952A95D1F76B
:102E40002091BC0024FD03C01092F9030895409125
:102E5000FB035091FC036091FD037091FE03452B31
:102E6000462B472B69F30097A105B10541F02AE2F3
:102E70002A95F1F700C00197A109B109E1CF80912E
:102E8000FA030C9481042EE031E0FC0131832083AD
:102E900082819381009711F00C946D2E0895CF9349
:102EA000DF93EC010E944317CE01DF91CF910C9488
:102EB0006D2EDF92EF92FF920F931F93CF93DF93CC
:102EC000EC018A819B81009711F00E946D2E86E0B3
:102ED00090E00E94D12D8C018C81F801808388E3E1
:102EE00095E092838183138280E290E095838483CE
:102EF0001B830A830E946A0481E0F8018383C8016E
:102F00000E940406D82E81110AC0D12C8D2DDF918C
:102F1000CF911F910F91FF90EF90DF9008958E0158
:102F20000E5F1F4F8D8180688D837E01F5E0EF0E6F
:102F3000F11CC7010E942104482F64E0C8010E94CF
:102F400032158D818F778D8368EE73E080E090E09D
:102F50000E94D20260E0C8010E94FD158034A9F6EB
:102F60008D8180648D83C7010E942104482F64E015
:102F7000C8010E9432158F818F7C8F83CE01079606
:102F80000E941D04482F67E0C8010E943215C80145
:102F90000E94A71582E38E8342E365E0C8010E9488
:102FA000321563E0C8010E9489158D818C608D8384
:102FB000C7010E942104482F64E0C8010E94321515
:102FC00062E0C8010E94891548854E8365E0C8010A
:102FD0000E9432158D81837F88608D83C7010E9496
:102FE0002104482F64E0C8010E9432158FCF4F9210
:102FF0005F926F927F928F929F92AF92BF92CF9289
:10300000DF92EF92FF920F931F93CF93DF93EA012A
:10301000009709F455C03B015C010E94A72A7C017E
:10302000209711F480E053C04301F3010081118126
:10303000C280D380F801EE0DFF1DEC15FD0598F45C
:103040008081811107C0A701B501C8010E94912AA2
:10305000892B31F0F80181918F018111FBCFEACFEB
:103060000115110521F5C70101968C0D9D1DF40177
:10307000248135812817390758F481E080878C81B5
:1030800080788C8310E000E081E0012B01F5CACF4D
:1030900093838283C114D10491F3A701B501C601C2
:1030A0000E949E2AF601EE0DFF1D108286018C8182
:1030B000807885608C8319830883FB82EA82E4CF61
:1030C000209709F4AFCF8C8180788C8381E0DF91E9
:1030D000CF911F910F91FF90EF90DF90CF90BF9015
:1030E000AF909F908F907F906F905F904F900895DA
:1030F0004F925F926F927F928F929F92AF92BF9208
:10310000CF92DF92EF92FF920F931F93CF93DF93B3
:10311000CDB7DEB7C257D1090FB6F894DEBF0FBEE8
:10312000CDBF2B013C016A01B22EF32ECE010F96CA
:103130009A8389839C838B838FE690E08C0F9D1FFD
:103140009E838D8398878F8319861E868E010F5FDD
:103150001F4FA8016EEB71E0855691090E94540F34
:10316000AC01B8018BE491E00E94F717A80161EE71
:1031700072E0CE010A960E94540FAC01C301B20165
:103180000E940C07A8016BEC72E0CE010A960E9427
:10319000540FBC01C6010E94FB06E1961FAF0EAFA3
:1031A000E19782EC91E0E3969FAF8EAFE397CE017B
:1031B00081599F4F0E94B20F2B013C0189E2882E5A
:1031C00084E0982ECB2CDF2CF12C520191E3E92ED8
:1031D000F40181914F01882311F1F9E0FF1508F006
:1031E00040C0E096EFAEE09786E28F0DE1968FAF9C
:1031F000E197E2961FAEE297A501A114B10441F058
:10320000A301BE0161597F4FC5010E942010AC018E
:10321000F60160817181828193810E940C07F39491
:10322000F4E0CF0ED11C8EE0F812D2CFC8010E947C
:10323000E213CE58DF4F0FB6F894DEBF0FBECDBFFE
:10324000DF91CF911F910F91FF90EF90DF90CF9082
:10325000BF90AF909F908F907F906F905F904F90B6
:10326000089580E38F0DE0968FAFE097E1961FAE53
:10327000E197C2CF8F929F92AF92BF92EF92FF924F
:103280000F931F93CF93DF93CDB7DEB7C654D10909
:103290000FB6F894DEBF0FBECDBF7C014A015B01C3
:1032A000CE010F969A8389839C838B83C8969E83D5
:1032B0008D8398878F8319861E868E010F5F1F4F1F
:1032C000A8016EEB71E0CD970E94540FAC01B801DC
:1032D00087E491E00E94F717A80167EC71E0CE0146
:1032E0000A960E94540FBC01C7010E94041020E0FE
:1032F00030E0A901C501B4010E94D22C87FD0CC0A9
:10330000A8016BEC71E0CE010A960E94540FAC014B
:10331000C501B4010E940C07C8010E94E213CA5BF8
:10332000DF4F0FB6F894DEBF0FBECDBFDF91CF9158
:103330001F910F91FF90EF90BF90AF909F908F9053
:103340000895EF92FF920F931F93CF93DF93CDB722
:10335000DEB7C654D1090FB6F894DEBF0FBECDBF9D
:103360007C01CE010F969A8389839C838B83C896B8
:103370009E838D8398878F8319861E868E010F5FAB
:103380001F4FA8016EEB71E0CD970E94540FAC0166
:10339000B80181E491E00E94F717A80163ED71E0A4
:1033A000CE010A960E94540FAC01B801C7010E94D9
:1033B000F717C8010E94E213CA5BDF4F0FB6F894FB
:1033C000DEBF0FBECDBFDF91CF911F910F91FF9058
:1033D000EF9008952F923F924F925F926F927F925B
:1033E0008F929F92AF92BF92CF92DF92EF92FF9215
:1033F0000F931F93CF93DF93CDB7DEB7CE52D1405B
:103400000FB6F894DEBF0FBECDBF382E1092640306
:10341000109263030E94A90C8C01332099F08091D3
:10342000990490919A04029769F48DE991E0909340
:1034300064038093630380916303909164030E940B
:10344000A119EBC229E234E0C55DDE4F3983288340
:10345000CB52D14087E394E0F9012191211116C3A9
:103460008E179F07D1F788E891E0E1CF80910001A6
:1034700090910101892B09F00CC3809199049091DE
:103480009A04029708F005C32090370484E591E080
:10349000222069F2D801ED91FC910284F385E02DA0
:1034A000C8010995CA5DDE4F8883C652D140FE012E
:1034B000E157FF4F88E3DF011D928A95E9F7E05954
:1034C000FF4F8CE1DF011D928A95E9F70E9404030A
:1034D000C95DDE4F688379838A839B83C752D1405D
:1034E000CC5DDE4F19821882C452D140412C512C40
:1034F00032010E940403C95DDE4F288139814A816F
:103500005B81C752D140621B730B840B950B6031FA
:1035100077428105910508F467C06BE2862E63E06F
:10352000962E7E0147ECE40EF11C3E015FEF650E26
:10353000711C6E018FE8C80ED11CA9E2B4E0C55E13
:10354000DE4FB983A883CB51D1405701512C86015E
:10355000CA5DDE4F3881C652D140351509F49DC190
:103560004EE0541609F499C1C55EDE4FA881B981B9
:10357000CB51D1408D91C55EDE4FB983A883CB512D
:10358000D140882319F1F301608171811616170665
:103590000CF07FC1072E000C880B990B0E94222C87
:1035A0009B01AC01D6016D917D918D919C910E9402
:1035B000782BF5016083718382839383332031F00C
:1035C000D4016D937D938D939C9313975394B4E0A2
:1035D0008B0E911CE4E0AE0EB11CF2E06F0E711C7C
:1035E00024E0C20ED11CB4CF0E94040364197509F3
:1035F00086099709683C71058105910538F462E0F8
:1036000070E080E090E00E94D20273CF0E94040339
:103610002B013C01D801ED91FC910684F785E02D4A
:10362000BE016F5F7F4FC8010995882309F461CF00
:10363000CC5DDE4FE881F981C452D1403196CC5D3A
:10364000DE4FF983E883C452D1409E0121573F4F9A
:10365000C55EDE4F39832883CB51D140AE01415046
:103660005F4FC05EDE4F59834883C052D140CE01C8
:103670000196C25EDE4F99838883CE51D140ABE282
:10368000B3E0CE5DDE4FB983A883C252D140E9E2F8
:10369000F4E0C35DDE4FF983E883CD52D140C35ED1
:1036A000DE4F1882CD51D140CA5DDE4FF881C6523F
:1036B000D140C35EDE4F2881CD51D140F21709F4CD
:1036C000C6C02E3009F4C3C0C35DDE4FA881B981E6
:1036D000CD52D1408D91C35DDE4FB983A883CD52C9
:1036E000D140882309F471C0C25EDE4FE881F981C0
:1036F000CE51D140C080D180E280F3802220B1F150
:10370000CE5DDE4FA881B981C252D1408D909D908F
:10371000AD90BC9020E030E0A901C501B4010E9449
:10372000732B181634F0812C912C50E8A52E5FE3F2
:10373000B52E20E030E0A901C701B6010E94732B2D
:10374000181634F0C12CD12C40E8E42E4FE3F42EAF
:10375000A5019401C701B6010E94782B0E94D72CC5
:103760006B017C01F7FAF094F7F8F094A701960149
:10377000C55EDE4FE881F981CB51D1406081718116
:10378000828193810E94072BC55EDE4FA881B9819B
:10379000CB51D1406D937D938D939C931397C05ED5
:1037A000DE4FE881F981C052D1408081918101963C
:1037B00091838083C25EDE4FA881B981CE51D14012
:1037C000CD92DD92ED92FC921397C35EDE4FB881ED
:1037D000CD51D140BF5FC35EDE4FB883CD51D140E4
:1037E000C55EDE4FE881F981CB51D1403496C55E8C
:1037F000DE4FF983E883CB51D140C05EDE4F288194
:103800003981C052D1402E5F3F4FC05EDE4F3983B9
:103810002883C052D140C25EDE4F48815981CE51CB
:10382000D1404C5F5F4FC25EDE4F59834883CE511B
:10383000D140CE5DDE4F88819981C252D14004963D
:10384000CE5DDE4F99838883C252D1402DCF0E9436
:103850000403C95DDE4F288139814A815B81C752EB
:10386000D140621B730B840B950B0E94202C20E02F
:1038700030E04AE754E40E94782B9E012F5F3F4FCF
:10388000CC5DDE4F48815981C452D1400E947818E6
:1038900030CE60E070E0CB018CCE332019F081E0B7
:1038A000809337040E94A90C4C01CE010F969A8395
:1038B00089839C838B831E830D8318870F831986CE
:1038C0001E863BEFA32E31E0B32E311004C024EF4F
:1038D000A22E21E0B22EAE014F5F5F4F6A016EEB68
:1038E00071E0CE010A960E94540FAC01B601C501E9
:1038F0000E94F717311031C08091990490919A0479
:103900008130910509F4A3C08230910509F4ABC060
:10391000892B69F4A60168E872E0CE010A960E943C
:10392000540FAC01B60188EE91E00E94F7179CECB1
:10393000A92E91E0B92E211004C088ECA82E81E0B8
:10394000B82EA60167ED71E0CE010A960E94540FD1
:10395000AC01B601C5010E94F717D8011196DC929F
:10396000CE9282EC91E013969C938E931297C801AD
:103970000E94B20F3C01212C5B01C55DDE4FE88146
:10398000F981CB52D1408191C55DDE4FF983E88347
:10399000CB52D1408823F9F0F9E0F21508F06FC05E
:1039A000E1E3D801EC9386E2820D11968C93119796
:1039B00012961C92A501A114B10431F0A301B80123
:1039C000C5010E942010AC01F701608171818281E4
:1039D00093810E940C072394F4E0EF0EF11C2EE07B
:1039E0002212CBCF311016C0D401ED91FC9102A070
:1039F000F3A1E02DC40109954B015C01A6016BEC1C
:103A000071E0CE010A960E94540FAC01C501B401C9
:103A10000E940C07C6010E94E213C25DDE4F0FB682
:103A2000F894DEBF0FBECDBFDF91CF911F910F91F4
:103A3000FF90EF90DF90CF90BF90AF909F908F90CE
:103A40007F906F905F904F903F902F900895A601C8
:103A500068E872E0CE010A960E94540FAC01B601EC
:103A60008DED91E062CFA60168E872E0CE010A9682
:103A70000E94540FAC01B60180ED91E056CF80E377
:103A8000820DD8018C9311961C9294CF332009F4A7
:103A9000EDCC212CFFCC2F923F924F925F926F92F0
:103AA0007F928F929F92AF92BF92CF92DF92EF92CE
:103AB000FF920F931F93CF93DF93CDB7DEB7CB5811
:103AC000D3400FB6F894DEBF0FBECDBF7E0121E814
:103AD000E21A2DEFF20AC7010E96D70111969C93B8
:103AE0008E9313969C938E931297E5E3F3E0EC0F7D
:103AF000FD1F1596FC93EE9314971796FC93EE9387
:103B0000169718961C9218971D961C921D97C85BC5
:103B1000DC4FF982E882C854D34088E07396AF53F3
:103B2000BF4F01900D928A95E1F788E0FE01E05CBD
:103B3000FC4F9E012F5F3F4F1901D90101900D925B
:103B40008A95E1F7198688E394E09B878A871D862A
:103B5000FF86EE86B701675F7F4F4AE0C9010E948A
:103B60001B0D892B61F48C85882311F40C94BA26E3
:103B7000D7011D968C9183FD02C00C94BA268DE16D
:103B800094E00E94A119CDC46BEF71E0C1010E94C5
:103B9000ED0FC15ADC4F688379838A839B83CF55AD
:103BA000D340D801ED91FC9106A8F7A9E02DC801FA
:103BB0000995882361F0CE01815A9C4F0E940F0C19
:103BC000DC01AB01BD0181E993E00E94F717CE0152
:103BD000815A9C4F0E940F0CDC01AB01BD0186E8AD
:103BE00093E00E94F717CE01815A9C4F0E940F0C60
:103BF000DC01AB01BD0189E793E00E94F717CB5CC4
:103C0000DC4F39822882C553D34088EC92E0C95CEE
:103C1000DC4F99838883C753D340CE018B5C9C4F84
:103C20000E94B20F6B017C01D801ED91FC910088DC
:103C3000F189E02DC8010995A70161E072E08111C9
:103C40005AC0C6010E948F0FAC01B70180E793E014
:103C50000E94F717CA5CDC4FC882D982EA82FB82D5
:103C6000C653D34086E092E0C65CDC4F99838883DC
:103C7000CA53D340CE018B5C9C4F0E94960FCB5C05
:103C8000DC4F688379838A839B83C553D340D12CCF
:103C9000D801ED91FC910288F389E02DC8010995C6
:103CA000D81608F05BC0D801ED91FC910488F58925
:103CB000E02D6D2DC80109957C01CE018B5C9C4FD8
:103CC0000E940F0CCC57DC4F79836883C458D340D3
:103CD000CA57DC4F99838883C658D340CC57DC4FF2
:103CE000488159816A817B81C458D340C7010E94B1
:103CF000F717D394CDCFC6010E948F0FAC01B70147
:103D000085E693E00E94F717D801ED91FC91008CB5
:103D1000F18DE02DC80109954B015C01A7016EE012
:103D200072E0C6010E948F0FAC01C501B4010E9470
:103D30000C07D801ED91FC91028CF38DE02DC801A8
:103D400009954B015C01A70162E172E0C6010E9486
:103D50008F0FAC01C501B4010E940C07CB5CDC4F96
:103D600039822882C553D34081EB92E0C95CDC4F95
:103D700099838883C753D340CE018B5C9C4F0E94AC
:103D8000B20FC55ADC4F688379838A839B83CB55F6
:103D9000D34066E172E0CE01855A9C4F0E94CE0F5F
:103DA0004B015C01D801ED91FC9106A8F7A9E02D2B
:103DB000C8010995813009F48FC108F480C18230AF
:103DC00009F495C1833009F4EFC16BE272E0CE01D2
:103DD000855A9C4F0E94CE0F6B017C01AC0161E0C3
:103DE00072E0C6010E948F0FAC01B7018CE393E033
:103DF0000E94F717A70166E372E0C6010E948F0FC9
:103E0000FC01892B61F0948190789860948386E01E
:103E100090E0A0E0B0E080839183A283B383A70108
:103E20006AE372E0C6010E948F0FBC0184EB90E050
:103E30000E94FB0660E472E0CE01855A9C4F0E940E
:103E4000CE0F6B017C01AC0161E072E0C6010E9403
:103E50008F0FAC01B70183E393E00E94F717A7012E
:103E600066E372E0C6010E948F0FFC01892B61F0AE
:103E7000948190789860948385E090E0A0E0B0E031
:103E800080839183A283B383A7016AE372E0C601B2
:103E90000E948F0FBC018AE590E00E94FB06CB5C7C
:103EA000DC4F39822882C553D34087ED92E0C95C4C
:103EB000DC4F99838883C753D340CE018B5C9C4FE2
:103EC0000E94B20F4B015C01D801ED91FC9102A060
:103ED000F3A1E02DC80109956B017C01A5016DE4FA
:103EE00072E0C4010E948F0FAC01C701B6010E94AD
:103EF0000C07D801ED91FC9100A0F1A1E02DC801C3
:103F00000995892BA1F0D801ED91FC9100A0F1A1B8
:103F1000E02DC80109957C01A50167E572E0C401A7
:103F20000E948F0FAC01B501C7010E94F717D8019D
:103F3000ED91FC91068CF78DE02DC8010995A50146
:103F400061E072E0811163C1C4010E948F0FAC0176
:103F5000B5018BE293E00E94F717CA5CDC4F8882C0
:103F60009982AA82BB82C653D3408FE592E0C65C99
:103F7000DC4F99838883CA53D340CE018B5C9C4F1E
:103F80000E94960FC05BDC4F688379838A839B8392
:103F9000C055D340D12CD801ED91FC9104A0F5A1DE
:103FA000E02DC8010995D81608F08AC1CE01805BC2
:103FB0009C4F0E940F0CCB5CDC4F688379838A8313
:103FC0009B83C553D340CE018B5C9C4F0E94140849
:103FD0004B015C01D801ED91FC9106A0F7A1E02D09
:103FE0006D2DC80109957C01A50166E672E0C4014A
:103FF0000E948F0FBC01C7010E940410D801ED91EF
:10400000FC9100A4F1A5E02D6D2DC80109957C015E
:10401000A5016AE672E0C4010E948F0FC458DC4F0C
:1040200099838883CC57D340C258DC4FB982A88289
:10403000CE57D340C458DC4F488159816A817B8177
:10404000CC57D340C7010E94F717D801ED91FC91DE
:1040500002A4F3A5E02D6D2DC80109952B013C01AB
:10406000A5016EE072E0C4010E948F0FFC01892B54
:1040700041F0948190789A60948340825182628268
:104080007382D801ED91FC9104A4F5A5E02D6D2D6E
:10409000C80109952B013C01A50162E172E0C40150
:1040A0000E948F0FFC01892B41F0948190789A60D7
:1040B00094834082518262827382D3946CCFA50133
:1040C00061E072E0C4010E948F0FAC01B50180E68F
:1040D00093E00E94F71779CEA50161E072E0C40178
:1040E0000E948F0FAC01B50189E593E0F2CFA501E5
:1040F00061E072E0C4010E948F0FAC01B50180E560
:1041000093E00E94F717CA5CDC4F88829982AA82EA
:10411000BB82C653D34086E092E0C65CDC4F9983F5
:104120008883CA53D340CE018B5C9C4F0E94960F6C
:10413000CB5CDC4F688379838A839B83C553D340F0
:10414000D12CD801ED91FC9104ACF5ADE02DC80166
:104150000995D81608F039CED801ED91FC9106AC3E
:10416000F7ADE02D6D2DC80109957C01CE018B5C6A
:104170009C4F0E940F0CC058DC4F79836883C05855
:10418000D340CE57DC4F99838883C258D340C05860
:10419000DC4F488159816A817B81C058D340C70177
:1041A0000E94F717D394CDCFA50161E072E0C4015E
:1041B0000E948F0FAC01B50185E493E00E94F717D0
:1041C000D801ED91FC9100ACF1ADE02DC80109954D
:1041D0007C01A5016FE172E0C4010E948F0FBC0158
:1041E000C7010E94FB06D801ED91FC9102ACF3AD32
:1041F000E02DC80109957C01A50165E272E0C401CA
:104200000E948F0FBC01C7010E94FB06DECDC401D6
:104210000E948F0FAC01B50183E293E00E94F71773
:10422000CA5CDC4F88829982AA82BB82C653D34083
:1042300080E792E0C65CDC4F99838883CA53D34001
:10424000CE018B5C9C4F0E94960FCB5CDC4F688349
:1042500079838A839B83C553D340D12CD801ED91B8
:10426000FC9100A8F1A9E02DC8010995D81640F5E8
:10427000D801ED91FC9102A8F3A9E02D6D2DC801A4
:1042800009957C01CE018B5C9C4F0E940F0CC85895
:10429000DC4F79836883C857D340C658DC4F998375
:1042A0008883CA57D340C858DC4F488159816A81F6
:1042B0007B81C857D340C7010E94F717D394CECF54
:1042C000D801ED91FC91EA5BFF4F0190F081E02D68
:1042D000C8010995882309F420C168E772E0C1018B
:1042E0000E94ED0FFE01E95AFC4F608371838283C7
:1042F0009383712C6E2E5F2E96E0292E92E0392E3C
:10430000D801ED91FC91EA5BFF4F0190F081E02D27
:10431000C8010995781608F000C1D801ED91FC910B
:10432000E85BFF4F0190F081E02D472DB801CE01F1
:104330008B5C9C4F0995C75CDC4FE880F980C953C2
:10434000D340862D952D0E940F0CC05BDC4F6883F7
:1043500079838A839B83C055D340CE01805B9C4F79
:104360000E9414084B015C01CB5CDC4FC880D980F3
:10437000C553D340AC0166E672E0C4010E948F0FC2
:10438000BC01C6010E940410C95CDC4FC880D98002
:10439000C753D340A5016AE672E0C4010E948F0FA3
:1043A000CC58DC4F99838883C457D340CA58DC4F1C
:1043B000B982A882C657D340CC58DC4F4881598176
:1043C0006A817B81C457D340C6010E94F717A501BB
:1043D00061E072E0C401E114F10409F464C00E94D8
:1043E0008F0FC059DC4F99838883C057D340CE5874
:1043F000DC4FB982A882C257D340C059DC4F4881F4
:1044000059816A817B81C057D3408CE193E00E943F
:10441000F717CF5ADC4F88829982AA82BB82C15596
:10442000D340CB5ADC4F39822882C555D340CE01C8
:10443000805B9C4F0E94960FC05BDC4F6883798342
:104440008A839B83C055D340B12CC55CDC4F8881E7
:10445000CB53D340B81608F05EC0EB2DF0E0EE0F62
:10446000FF1FEE0DFF1DC590D490CE01805B9C4FC9
:104470000E940F0CC459DC4F79836883CC56D3401B
:10448000C259DC4F99838883CE56D340C459DC4F40
:10449000488159816A817B81CC56D340C6010E94F4
:1044A000F717B394D2CF0E948F0FC859DC4F99836E
:1044B0008883C856D340C659DC4FB982A882CA56F1
:1044C000D340C859DC4F488159816A817B81C856E5
:1044D000D34085E193E00E94F717A5016EE072E0FA
:1044E000C4010E948F0FBC01C45CDC4F888199819C
:1044F000CC53D3400E94FB06A50162E172E0C401E7
:104500000E948F0FBC01C25CDC4F88819981CE5321
:10451000D3400E94FB067394F3CECE0101960E9415
:10452000E213C557DC4F0FB6F894DEBF0FBECDBF08
:10453000DF91CF911F910F91FF90EF90DF90CF907F
:10454000BF90AF909F908F907F906F905F904F90B3
:104550003F902F90089564E872E0C6010E94F62E05
:10456000892B09F0BAC0FA82E98288E892E09C833C
:104570008B836DE872E0C1010E94200F8C016DE811
:1045800072E00E94F62E892BD9F510929A041092AF
:104590009904109237040E94A90C8C01809199040F
:1045A00090919A04009709F062C060E086E00E9452
:1045B000610260E085E00E946102D801ED91FC910A
:1045C00006A8F7A9E02DC8010995823009F442C078
:1045D000833089F1813059F4D801ED91FC91E05C90
:1045E000FF4F0190F081E02D61E0C801099540E0A6
:1045F00050E060E87FEB84E892E00E943A1991CFA6
:104600006BE272E0C8010E94F62E892B39F481E03A
:1046100090E090939A0480939904BBCF60E472E099
:10462000C8010E94F62E892B19F482E090E0F1CFA8
:1046300080E194E0A6CA6091020170910301D80163
:10464000ED91FC91EE5BFF4F0190F081E02DC801F0
:104650000995C2CFD801ED91FC91EC5BFF4F019021
:10466000F081E02D60919804C8010995B5CFD8017B
:10467000ED91FC9106A8F7A9E02D0197C1F4C801BE
:104680000995882359F0D801ED91FC91E05CFF4F2A
:104690000190F081E02D60E0C801099560E085E0BF
:1046A0000E94610261E086E00E946102A0CFC80121
:1046B0000995882359F0D801ED91FC91E05CFF4FFA
:1046C0000190F081E02D60E0C801099560E086E08E
:1046D0000E94610261E085E0E7CF69E972E0C6010E
:1046E0000E94F62E892B01F5FA82E98287ED91E08E
:1046F0009C838B8365EA72E0C1010E94200F69EA06
:1047000072E00E94F62E21E030E0892B11F430E0B7
:1047100020E0309301012093000140E050E060E888
:104720007FEB89E992E069CF6DEA72E0C6010E94F1
:10473000F62E892B09F007C1D801ED91FC9106A84E
:10474000F7A9E02DC8010995813079F008F4F8C087
:10475000823009F460C0833009F49DC040E050E02D
:1047600060E87FEB8DEA92E048CFB9E0EB0EF11CF8
:1047700065EB72E0C7010E94CF0E009711F4F12C97
:104780002CC0FC0184818F778630C9F765EB72E01D
:10479000C7010E94CF0EFC01892B89F394819F777A
:1047A000983071F138F4992351F39630A9F0FF2431
:1047B000F39413C09A3021F19C30C9F7FF24F3948D
:1047C00020E030E0A90160817181828193810E94A3
:1047D000732B811102C0D3CFF08080919904909106
:1047E0009A04892B09F0BACFD801ED91FC91E05CD5
:1047F000FF4F0190F081E02D6F2DC8010995AECFDC
:10480000FF24F39480819181A281B381892B8A2B2B
:104810008B2B19F7B4CFCB5CDC4F19821882C553B0
:10482000D340FA82E98288EB92E09C838B83BE01BD
:104830006B5C7C4FC1010E94D60E7C0197FD8ECF30
:10484000D801ED91FC9104ACF5ADE02DC8010995BE
:104850008E151F0409F00CF481CFE092980480912A
:10486000990490919A04892B09F078CFD801ED91A1
:10487000FC91EC5BFF4F0190F081E02D6E2DC801A3
:104880000995D801ED91FC91E05CFF4F0190F0811A
:10489000E02D61E0B2CFD801ED91FC9100ACF1AD1B
:1048A000E02DC8010995CB5CDC4F99838883C55303
:1048B000D340FA82E9828CEB92E09C838B83BE0129
:1048C0006B5C7C4FC1010E94D60E7C01D801ED913A
:1048D000FC9100ACF1ADE02DC8010995D801ED9136
:1048E000FC91E816F906ECF400ACF1ADE02DC8013E
:1048F00009957C01F0920301E092020180919904F4
:1049000090919A04892B09F029CFD801ED91FC915F
:10491000EE5BFF4F0190F081E02DB701C8010995D2
:10492000B0CF02ACF3ADE02DC80109958E159F05FF
:104930000CF7D801ED91FC9102ACF3ADE02DD7CF8F
:104940008CEE93E01EC964EC72E0C6010E94F62E64
:10495000892B09F099C0D801ED91FC910088F1896B
:10496000E02DC8010995811134C0CB5CDC4F198260
:104970001882C553D340FA82E98288EB92E09C8387
:104980008B83BE016B5C7C4FC1010E94D60E7C0103
:1049900097FD1CC0D801ED91FC910288F389E02DB0
:1049A000C80109958E151F0489F084F0D801ED9196
:1049B000FC910688F789E02D6E2DC801099540E02D
:1049C00050E060E87FEB84EC92E017CE8AED93E054
:1049D000D8C8D801ED91FC91008CF18DE02DC80173
:1049E00009954B015C01B9E0EB0EF11C6DEC72E036
:1049F000C7010E94CF0E009791F0FC01848183FFD4
:104A00000EC06DEC72E0C7010E94CF0E812C912C7C
:104A10005401009721F00E94C10A4B015C01D801AA
:104A2000ED91FC91008CF18DE02DC8010995A50157
:104A300094010E94D22CD801ED91FC91181694F4A7
:104A4000008CF18DE02DC80109954B015C01D80166
:104A5000ED91FC91048CF58DE02DB501A401C80108
:104A60000995ADCF028CF38DE02DC8010995A50104
:104A700094010E94732B87FFEACFD801ED91FC913E
:104A8000028CF38DE02DDFCF63ED72E0C6010E9452
:104A9000F62E892B09F0B8C0D801ED91FC91068C57
:104AA000F78DE02DC8010995811173C06FE572E0A3
:104AB000C70109960E94C40E009729F0FC012481C9
:104AC0006C0125FD02C0D12CC12CF12CD801ED9137
:104AD000FC9104A0F5A1E02DC8010995F81608F095
:104AE00082C0D801ED91FC9106A0F7A1E02D6F2DB9
:104AF000C80109955C01C114D104B9F1BC01C6011A
:104B00000E94E00C892B89F1B501C6010E94CF0EED
:104B1000812C912C5401009721F00E94760B4B01BF
:104B20005C01D801ED91FC9102A4F3A5E02D6F2D5D
:104B3000C8010995D801ED91FC9186169706A80643
:104B4000B906ACF402A4F3A5E02D6F2DC8010995B8
:104B50004B015C01D801ED91FC9106A4F7A5E02D75
:104B6000A50194016F2DC8010995F394AFCF04A45A
:104B7000F5A5E02D6F2DC8010995681579058A0501
:104B80009B0544F7D801ED91FC9104A4F5A5E02D17
:104B9000DCCFCB5CDC4F19821882C553D340FA823C
:104BA000E9828CED92E09C838B83BE016B5C7C4F31
:104BB000C1010E94D60E7C0197FD22C0D801ED9163
:104BC000FC9100A8F1A9E02DC80109958E151F04DC
:104BD000B9F0B4F0D801ED91FC9104A8F5A9E02D4D
:104BE0006E2DC8010995D801ED91FC9102A0F3A1A9
:104BF000E02DC8010995AB01BC0183ED92E0FDCC2D
:104C000086EC93E00C94C11D63EE72E0C6010E9435
:104C1000F62E892B09F03FC0E9E2F4E01192B4E0EE
:104C2000E733FB07D9F767EE72E0C70109960E94E8
:104C3000C40E009749F1FC01248126FF25C0C080E5
:104C4000D180BB24B394C114D104F1F0C6010E94F9
:104C5000060B7C0197FD13C0D801ED91FC910284F5
:104C6000F385E02DC80109958E151F0441F03CF035
:104C7000BDE0BE1520F0F701E75DFB4FB082C60135
:104C80000E94620C6C01DFCF40E050E060E87FEBF7
:104C900083EE92E0B2CC60EF72E0C6010E94F62E85
:104CA000892B09F04FC08FEF9FEFCB5CDC4F9983CE
:104CB0008883C553D340FA82E98288EB92E09C83D3
:104CC0008B83BE016B5C7C4FC1010E94D60E6C01D0
:104CD000CB5CDC4F19821882C553D340FA82E9823B
:104CE0008DEC92E09C838B83BE016B5C7C4FC10199
:104CF0000E94D60E7C01D7FC21C0D801ED91FC9119
:104D0000EA5BFF4F0190F081E02DC80109958C15F9
:104D10001D04A1F09CF0D801ED91FC91E65BFF4FE2
:104D20000190F081E02DA7016C2DC801099540E0AC
:104D300050E060E87FEB80EF92E05FCC82EB93E0A5
:104D40000C94C11D6AEF72E0C6010E94F62E892BF9
:104D500021F481E00E94EA19E4CB66E073E0C60129
:104D60000E94F62E892B11F480E0F4CF82EA93E0C2
:104D70000C94C11DFA82E98287EC91E09C838B83BD
:104D800066EA71E0C1010E94200F6C010E94A90C2B
:104D90008C016EE073E0C6010E94F62E892B09F0AB
:104DA000DACB0E94A90C8C01CE010F969A838983DD
:104DB0009C838B83FE82ED82F886EF8219861E86A5
:104DC000A1016EEB71E005970E94540FAC01B10197
:104DD0008DE993E00E94F717D801ED91FC910680D0
:104DE000F781E02DC80109957C01A1016BED71E00F
:104DF000CE010A960E94540FAC01B101C7010E9476
:104E0000F717D801ED91FC910084F185E02DC801E0
:104E100009957C01A10162EE71E0CE010A960E9423
:104E2000540FAC01B101C7010E94F71767EE72E0A1
:104E3000C1010E94ED0FCD59DC4F688379838A83CD
:104E40009B83C356D340C959DC4F1882C756D34001
:104E5000D801ED91FC910284F385E02DC8010995FC
:104E6000C959DC4FB881C756D340B81710F00C941D
:104E7000C41DD801ED91FC910484F585E02DC9593C
:104E8000DC4F6881C756D340C80109952B013C010E
:104E9000CE018D599C4F0E940F0CCB5CDC4F688378
:104EA00079838A839B83C553D340CE018B5C9C4F0F
:104EB0000E9414086B017C01AC016DEE71E0C6012B
:104EC0000E948F0FFC01892B89F094819078986063
:104ED0009483C959DC4F2881C756D340822F90E074
:104EE000B0E0A0E080839183A283B383A70160EF49
:104EF00071E0C6010E948F0FB701AC01C2010E9490
:104F0000F717A70165EF71E0C6010E948F0FC85720
:104F1000DC4F99838883C858D340C657DC4FF98249
:104F2000E882CA58D340C857DC4F488159816A810A
:104F30007B81C858D340C3010E94F717C959DC4F81
:104F40003881C756D3403F5FC959DC4F3883C756B5
:104F5000D3407ECF1F920F920FB60F9211242F9342
:104F60003F938F939F93AF93BF938091CB03909187
:104F7000CC03A091CD03B091CE033091CA0323E0BE
:104F8000230F2D3758F50196A11DB11D2093CA039B
:104F90008093CB039093CC03A093CD03B093CE0327
:104FA0008091CF039091D003A091D103B091D2030F
:104FB0000196A11DB11D8093CF039093D003A093C0
:104FC000D103B093D203BF91AF919F918F913F9145
:104FD0002F910F900FBE0F901F90189526E8230F6A
:104FE0000296A11DB11DD2CF1F920F920FB60F9244
:104FF00011242F933F934F935F936F937F938F93DE
:105000009F93AF93BF93EF93FF938BE994E00E943C
:105010008E03FF91EF91BF91AF919F918F917F91FF
:105020006F915F914F913F912F910F900FBE0F9015
:105030001F9018951F920F920FB60F9211242F9365
:105040008F939F93EF93FF93E091AB04F091AC04A7
:105050008081E091B104F091B20482FD1BC0908187
:105060008091B4048F5F8F732091B504821741F053
:10507000E091B404F0E0E556FB4F958F8093B404C3
:10508000FF91EF919F918F912F910F900FBE0F90F5
:105090001F9018958081F4CF1F920F920FB60F9238
:1050A00011242F933F934F935F936F937F938F932D
:1050B0009F93AF93BF93EF93FF938091B900887F45
:1050C000803609F44AC0F0F5883209F4A7C018F513
:1050D000803109F49BC0B8F4882309F4F9C0883002
:1050E00009F494C0FF91EF91BF91AF919F918F917F
:1050F0007F916F915F914F913F912F910F900FBED4
:105100000F901F901895883109F488C0803251F7AC
:105110008093F70314C0803409F49DC040F48033B9
:10512000B9F38833F9F68093F70385ECB0C0803586
:1051300009F485C0883509F496C0883499F60E9430
:105140000B17D0CF883909F48CC038F5883729F08F
:1051500050F4883611F0803729F683E08093F90304
:105160001092A80357C0883809F47BC0803919F021
:10517000803809F0B7CF8091A803803208F071C061
:10518000E091A80381E08E0F8093A8038091BB007B
:10519000F0E0E857FC4F80833DC0803B39F0E0F4FD
:1051A000803A09F479C0883A09F09CCF84E0809372
:1051B000F9031092870310928603E0912304F09183
:1051C000240409958091860381110FC081E08093AA
:1051D00086031092660309C0803C09F4A6CF883C80
:1051E00009F4A3CF883B09F07DCFE091870381E0EC
:1051F0008E0F80938703F0E0EA59FC4F8081809303
:10520000BB00909187038091860329C08091D403CD
:105210008093BB0085EC8093BC0064CF9091F60333
:105220008091F503981758F5E091F60381E08E0F11
:105230008093F603F0E0EB52FC4F8081E9CFE091E0
:10524000F60381E08E0F8093F6038091BB00F0E0BF
:10525000EB52FC4F80839091F6038091F5039817F1
:10526000C8F285E8D8CFE091F60381E08E0F8093F5
:10527000F6038091BB00F0E0EB52FC4F80838091FD
:10528000F80381115CCF81E08093D30384EA80939B
:10529000BC001092F90326CF85EC8093BC001092DD
:1052A000F9038091A803803230F4E091A803F0E084
:1052B000E857FC4F10826091A80370E0E091210450
:1052C000F091220488E893E009951092A8030ACF90
:1052D0001092F70334CFEBE9F4E01382128288EEE8
:1052E00093E0A0E0B0E084839583A683B78320E7B2
:1052F00031E03183208325EC30E03587248724ECAE
:1053000030E03787268720EC30E0318B208B21EC92
:1053100030E0338B228B22EC30E0358B248B26EC73
:1053200030E0378B268B118E128E138E148EE8E3AD
:10533000F5E01382128284839583A683B78382E883
:1053400091E0918380830895789484B5826084BDD0
:1053500084B5816084BD85B5826085BD85B5816079
:1053600085BD80916E00816080936E0010928100F7
:1053700080918100826080938100809181008160B2
:105380008093810080918000816080938000809173
:10539000B10084608093B1008091B00081608093FF
:1053A000B00080917A00846080937A0080917A00C6
:1053B000826080937A0080917A00816080937A0085
:1053C00080917A00806880937A001092C100E09109
:1053D000AB04F091AC0482E08083E091A704F091EB
:1053E000A8041082E091A904F091AA0480E18083CE
:1053F0001092B304E091AF04F091B00486E0808392
:10540000E091AD04F091AE04808180618083E091F1
:10541000AD04F091AE04808188608083E091AD049A
:10542000F091AE04808180688083E091AD04F091BA
:10543000AE0480818F7D80830E94040386E00E94F9
:10544000420285E00E94420260E086E00E94610222
:1054500060E085E00E9461020E946A040E94A90C3B
:10546000DC01ED91FC910480F581E02D0995C0E00F
:10547000D0E0811134C08BE994E00E946E03892B47
:1054800021F08BE994E00E944C03C9E8D2E0FE01D0
:105490006491662339F08BE994E00E94B003219671
:1054A000892BA9F742E050E067E173E08BE994E0D3
:1054B0000E94100368EE73E080E090E00E94D20248
:1054C000DACF8D3061F0E091C903EF35F0F491E06F
:1054D0009E0F9093C903F0E0E85CFB4F80838BE95B
:1054E00094E00E946E03892B99F08BE994E00E946E
:1054F0004C038A3031F78091C903E82FF0E0E85C73
:10550000FB4F108281110E944B1D1092C903E7CFFF
:10551000209729F30E947A03882309F30E94000050
:10552000DECFFB01DC0104C08D910590801921F4D0
:1055300041505040C8F7881B990B0895FB01DC01CE
:1055400002C005900D9241505040D8F70895FC01DB
:1055500005900020E9F7809590958E0F9F1F089584
:10556000AA1BBB1B51E107C0AA1FBB1FA617B70789
:1055700010F0A61BB70B881F991F5A95A9F78095A5
:105580009095BC01CD010895A1E21A2EAA1BBB1B68
:10559000FD010DC0AA1FBB1FEE1FFF1FA217B307FF
:1055A000E407F50720F0A21BB30BE40BF50B661F15
:1055B000771F881F991F1A9469F7609570958095D9
:1055C00090959B01AC01BD01CF0108950E94F72A7F
:1055D000A59F900DB49F900DA49F800D911D112447
:1055E0000895EE0FFF1F0590F491E02D0994A29FFE
:1055F000B001B39FC001A39F700D811D1124911DA7
:10560000B29F700D811D1124911D08955058BB2724
:10561000AA270E941E2B0C94982C0E948A2C38F0EA
:105620000E94912C20F039F49F3F19F426F40C9439
:10563000872C0EF4E095E7FB0C94812CE92F0E9457
:10564000A92C58F3BA17620773078407950720F04F
:1056500079F4A6F50C94CB2C0EF4E0950B2EBA2F12
:10566000A02D0B01B90190010C01CA01A001112468
:10567000FF27591B99F0593F50F4503E68F11A1614
:10568000F040A22F232F342F4427585FF3CF4695A5
:1056900037952795A795F0405395C9F77EF41F16C7
:1056A000BA0B620B730B840BBAF09150A1F0FF0F91
:1056B000BB1F661F771F881FC2F70EC0BA0F621F7D
:1056C000731F841F48F4879577956795B795F7956D
:1056D0009E3F08F0B0CF9395880F08F09927EE0F02
:1056E0009795879508950E945D2C08F481E00895B0
:1056F0000E948C2B0C94982C0E94912C58F00E94A4
:105700008A2C40F029F45F3F29F00C94812C511130
:105710000C94CC2C0C94872C0E94A92C68F3992310
:10572000B1F3552391F3951B550BBB27AA2762179D
:105730007307840738F09F5F5F4F220F331F441FAA
:10574000AA1FA9F335D00E2E3AF0E0E832D09150DE
:105750005040E695001CCAF72BD0FE2F29D0660FCB
:10576000771F881FBB1F261737074807AB07B0E80E
:1057700009F0BB0B802DBF01FF2793585F4F3AF014
:105780009E3F510578F00C94812C0C94CC2C5F3FFB
:10579000E4F3983ED4F3869577956795B795F7959A
:1057A0009F5FC9F7880F911D9695879597F9089582
:1057B000E1E0660F771F881FBB1F6217730784071E
:1057C000BA0720F0621B730B840BBA0BEE1F88F72D
:1057D000E09508950E94F12B6894B1110C94CC2CA3
:1057E00008950E94B12C88F09F5798F0B92F9927FF
:1057F000B751B0F0E1F0660F771F881F991F1AF0BC
:10580000BA95C9F714C0B13091F00E94CB2CB1E029
:1058100008950C94CB2C672F782F8827B85F39F028
:10582000B93FCCF3869577956795B395D9F73EF454
:1058300090958095709561957F4F8F4F9F4F0895FC
:10584000E89409C097FB3EF490958095709561951A
:105850007F4F8F4F9F4F9923A9F0F92F96E9BB27D0
:105860009395F695879577956795B795F111F8CF4C
:10587000FAF4BB0F11F460FF1BC06F5F7F4F8F4FB7
:105880009F4F16C0882311F096E911C0772321F0AD
:105890009EE8872F762F05C0662371F096E8862F45
:1058A00070E060E02AF09A95660F771F881FDAF79C
:1058B000880F9695879597F90895990F0008550FC9
:1058C000AA0BE0E8FEEF16161706E807F907C0F086
:1058D00012161306E407F50798F0621B730B840B8E
:1058E000950B39F40A2661F0232B242B252B21F468
:1058F00008950A2609F4A140A6958FEF811D811D08
:10590000089597F99F6780E870E060E008959FEF41
:1059100080EC089500240A94161617061806090646
:10592000089500240A941216130614060506089515
:10593000092E0394000C11F4882352F0BB0F40F49D
:10594000BF2B11F460FF04C06F5F7F4F8F4F9F4FDD
:10595000089557FD9058440F551F59F05F3F71F05F
:105960004795880F97FB991F61F09F3F79F08795C6
:105970000895121613061406551FF2CF4695F1DF4F
:1059800008C0161617061806991FF1CF86957105DF
:10599000610508940895E894BB2766277727CB0113
:1059A00097F908950E945D2C08F48FEF08950E94E6
:1059B000E72C29ED3BE54EED5EE30C942F2D16F020
:1059C0000C949C2D0C94872C68940C94812C0E9430
:1059D000B12CA8F39923C1F3AEF3DF93CF931F93B8
:1059E0000F93FF92C92FDD2788232AF02197660F96
:1059F000771F881FDAF720E030E040E85FEB9FE395
:105A0000883920F0803E38F021968F770E94072B4E
:105A1000E8E6F0E004C00E94072BE5E9F0E00E9410
:105A2000AA2D8B01BE01EC01FB2E6F5771097595F4
:105A3000771F880B990B0E94222C28E132E741E363
:105A40005FE30E94422DAF2D9801AE01FF900F91B0
:105A50001F91CF91DF910E941E2B0C94982C0E94D5
:105A6000422D0C94982C0E948A2C38F00E94912C84
:105A700020F0952311F00C94812C0C94872C112488
:105A80000C94CC2C0E94A92C70F3959FC1F3950F18
:105A900050E0551F629FF001729FBB27F00DB11DB2
:105AA000639FAA27F00DB11DAA1F649F6627B00D42
:105AB000A11D661F829F2227B00DA11D621F739F2B
:105AC000B00DA11D621F839FA00D611D221F749F39
:105AD0003327A00D611D231F849F600D211D822F80
